:100000000C9434000C9451000C9451000C94510049
:100010000C9451000C9423010C9451000C94510049
:100020000C9451000C9451000C9451000C9451000C
:100030000C9451000C9451000C9451000C945100FC
:100040000C9451000C9451000C94B0010C9451008C
:100050000C9451000C9451000C9451000C945100DC
:100060000C9451000C94510011241FBECFEFD8E026
:10007000DEBFCDBF11E0A0E0B1E0E4E2FAE002C0F3
:1000800005900D92A636B107D9F721E0A6E6B1E0BA
:1000900001C01D92A73AB207E1F70E9454010C94E7
:1000A00010050C94000080E480937C00EAE7F0E007
:1000B00080E88083808184608083089522E020939B
:1000C000C0009C0140E050E060E472E48FE090E00A
:1000D0000E94B104215031093093C5002093C4001F
:1000E00088E98093C100E2ECF0E086E080838081C3
:1000F00080830895E0ECF0E080818823ECF7809124
:10010000C6000895E0ECF0E0908195FFFDCF80936C
:10011000C60008958091C000882344F4A6ECB0E0A6
:10012000E0ECF0E08C9180818823E4F30895CF9394
:10013000DF93CDB7DEB764970FB6F894DEBF0FBE7E
:10014000CDBF182F092F60E081E00E9404036CE00E
:1001500071E080E80E94B6034AE050E0BE016F5FA4
:100160007F4F812F902F0E94D00461E089810E94EF
:10017000040361E08A810E940403C12CD12C760122
:100180000F2EF0E18F2EF7E29F2EA12CB12CF02D37
:1001900002E0C701B601A50194010E948F04672BFC
:1001A000682B692B21F403B9812F0E9482008FEF05
:1001B000C81AD80AE80AF80AECCFCF93DF93CDB774
:1001C000DEB72C970FB6F894DEBF0FBECDBF0F2E53
:1001D000FCE0DF2EF02D7E018DE0E80EF11C84E2C4
:1001E0000E94820084E20E94820084E20E948200D7
:1001F0000E947A00853421F482E090E00E9497000A
:100200000E948A00E0E0F1E0DE0111968D2D019060
:100210000D928A95E1F783E60E9482008CE20E94AB
:1002200082008E010F5F1F4FF80181918F010E94A4
:1002300082000E151F05C1F78AE00E9482008DE042
:100240000E948200CCCF1F920F920FB60F92112402
:100250000E94DD008FE084B988EE8AB92FEF89E62D
:1002600098E1215080409040E1F700C0000087E015
:1002700085B92FEF89E698E1215080409040E1F761
:1002800000C0000015B8789408950E942A0180E00B
:100290009BE40E945E000E94C9030E945C030E94CE
:1002A0008F020E9453000895CF93DF93CDB7DEB73E
:1002B00064970FB6F894DEBF0FBECDBF0E94450114
:1002C0002FEF89E698E1215080409040E1F700C08F
:1002D000000060E081E00E9404030F2EF6E6CF2EBE
:1002E000F1E0DF2EF02D7E01E4E0EE0EF11C289A05
:1002F00060E081E00E94040367E171E080E80E9411
:10030000B60361E08AE10E94ED03F60185A94AE0A7
:1003100050E0BE016F5F7F4F90E00E94D0048E01DD
:100320000F5F1F4F61E0F80181918F010E9404036C
:100330000E151F05B9F7FFE72AE186E0F1502040CE
:100340008040E1F700C0000085B115B89FE7EAE101
:10035000F6E09150E040F040E1F700C00000C7CF68
:100360001F920F920FB60F921124CF92DF92EF924D
:10037000FF921F932F933F934F935F936F937F93BE
:100380008F939F93AF93BF93EF93FF93CF93DF939D
:10039000CDB7DEB7A897DEBFCDBF1091C60015322E
:1003A000C1F50E947A00182F843499F40E947A00D3
:1003B0008435E1F78091A6018E7F8093A60160E0ED
:1003C00081E00E94040367E371E080E80E94B603C5
:1003D0002DC0833459F50E947A008D33E1F70F2E3A
:1003E000F6E6EF2EF1E0FF2EF02DF70180A38091CD
:1003F000A60181608093A60160E081E00E94040371
:100400006AE371E080E80E94B60381E0F70183832C
:100410000DC0A6E6B1E0D496EC91D49781E08E0FA2
:10042000D4968C93F0E0EA59FE4F10A380919A0184
:10043000823009F042C060E080EC0E9404038091A9
:1004400086014AE050E0BE016B5E7F4F90E00E9463
:10045000D004CE0145967C016E0198E1C90ED11CF5
:1004600061E0F70181917F010E940403EC14FD0417
:10047000B9F761E080E20E940403809187014AE0BD
:1004800050E0BE016F5F7F4F90E00E94D004CE012C
:1004900001967C016E0194E0C90ED11C61E0F70168
:1004A00081917F010E940403EC14FD04B9F760E020
:1004B00080E80E94040310929A01A6E6B1E0D49667
:1004C000EC91D49781E08E0FD4968C93F0E0EA59AA
:1004D000FE4F10A3A8960FB6F894DEBF0FBECDBF97
:1004E000DF91CF91FF91EF91BF91AF919F918F914C
:1004F0007F916F915F914F913F912F911F91FF904D
:10050000EF90DF90CF900F900FBE0F901F90189537
:1005100018BC1092B40017BC1092B3000895E4E622
:10052000F0E08081108288E68AB9239A93EA94BD2C
:1005300081E085BD9093B0008093B1000E94880255
:100540000895CF93DF93C82FD62F84EA8093BC0001
:100550000E94DD03892BE1F38091B900887F883008
:1005600021F088E090E00E949700CC0FC093BB0080
:1005700084E88093BC000E94DD03892BE1F3809125
:10058000B900887F883131F08091B900887F90E090
:100590000E949700D093BB0084E88093BC000E9427
:1005A000DD03892BE1F38091B900887F883231F037
:1005B0008091B900887F90E00E94970084E9809341
:1005C000BC00DF91CF910895CF93C82F8FEC97E0B7
:1005D0000197F1F700C000006C2F646087E20E9471
:1005E000A1028FEC97E00197F1F700C000006C2F9B
:1005F0006B7F87E20E94A1028FEC97E00197F1F7F1
:1006000000C00000CF910895CF93DF93C62FC8603C
:10061000D82FD07FDC2B90E1899F90011124C22B31
:100620006D2F87E20E94A1028D2F0E94E4026C2FA1
:1006300087E20E94A1028C2F0E94E402DF91CF91F9
:100640000895AF92BF92CF92DF92EF92FF920F93F5
:100650001F93CF93DF935C017B016A01890160E006
:1006600080E80E9404031E141F0454F4E501EA0C00
:10067000FB1C61E089910E940403CE15DF05C9F7D8
:1006800060E080EC0E9404031016110654F4E601A9
:100690000C0D1D1D61E089910E940403C017D10754
:1006A000C9F7DF91CF911F910F91FF90EF90DF90ED
:1006B000CF90BF90AF900895CF93DF93CDB7DEB7C3
:1006C000A2970FB6F894DEBF0FBECDBF60E083E304
:1006D0000E94040360E082E30E94040360E086E07D
:1006E0000E94040360E08CE00E94040360E088E262
:1006F0000E94040360E081E00E9404032FEF89EF71
:1007000090E0215080409040E1F700C0000081E17E
:10071000E4E4F1E0DE01119601900D928A95E1F793
:1007200081E1E5E5F1E0DE01529601900D928A95B6
:10073000E1F720E230E0AE014E5E5F4F60E270E034
:10074000CE0101960E9421032FEF8EE994E2215001
:1007500080409040E1F700C00000A2960FB6F894E8
:10076000DEBF0FBECDBFDF91CF910895CF93DF9352
:10077000EB0160E00E9404038881882339F0219610
:1007800061E00E94040389918111FACFDF91CF913A
:100790000895E4E6F0E080818F778083E9EBF0E074
:1007A00080818C7F808380E28093B8008FEF80937C
:1007B000BB0085E08093BC0008958091BC008078E8
:1007C00090E0089584EC8093BC00ECEBF0E0808135
:1007D0008823ECF78091BB000895EF92FF920F936E
:1007E0001F93CF93DF93C82F062F84EA8093BC001A
:1007F000ECEBF0E090819923ECF78091B900887FD1
:10080000883021F088E090E00E9497008C2F880FBC
:100810008093BB0084E88093BC00ECEBF0E0908117
:100820009923ECF78091B900887F883121F088E125
:1008300090E00E9497001092BB0084E88093BC0077
:10084000ECEBF0E090819923ECF78091B900887F80
:10085000883221F088E290E00E94970084EA809339
:10086000BC00ECEBF0E090819923ECF78091B900AB
:10087000887F803121F080E190E00E949700CC0FCA
:10088000C160C093BB0084E88093BC00ECEBF0E057
:1008900080818823ECF78091B900887F803421F033
:1008A00080E490E00E9497000230B8F0802F90E042
:1008B000019718161906A4F4CBE9D1E010E0C8019D
:1008C00086569E4F7C010E94E2038993CE15DF0578
:1008D000D1F798012150310905C020E030E002C075
:1008E00020E030E084E88093BC00ECEBF0E0808115
:1008F0008823ECF78091BB00F901EA59FE4F85ABE4
:1009000084E98093BC00ECEBF0E0808184FDFDCFB6
:10091000DF91CF911F910F91FF90EF900895A1E289
:100920001A2EAA1BBB1BFD010DC0AA1FBB1FEE1F69
:10093000FF1FA217B307E407F50720F0A21BB30BB4
:10094000E40BF50B661F771F881F991F1A9469F730
:1009500060957095809590959B01AC01BD01CF018C
:100960000895052E97FB1EF400940E94C80457FDBD
:1009700007D00E948F0407FC03D04EF40C94C804E7
:1009800050954095309521953F4F4F4F5F4F0895BB
:1009900090958095709561957F4F8F4F9F4F0895EB
:1009A0004532510520F4423010F00C94DB04FB0179
:1009B0001082CB010895BB274A3031F4992322F4E9
:1009C000BDE2909581959F4F0C94E704BB27FB01F6
:1009D0005527AA27880F991FAA1FA41710F0A41B38
:1009E00083955051B9F7A05DAA3308F0A95DA19392
:1009F000009779F7B111B1931192CB010C940005D6
:100A0000DC01FC01672F71917723E1F7329704C075
:100A10007C916D9370836291AE17BF07C8F3089500
:040A2000F894FFCF78
:100A24003030303636363736413133464572726FA0
:100A3400726D73673A200052656365697665643A3E
:100A4400200053656E64696E673A2000436F6E6ED2
:100A5400656374696E6700444953434F4E4E454382
:100A640054454400202020446972747944617767B6
:100A740020202020002077656C636F6D65732079DA
:060A84006F752021200027
:00000001FF
