:100000000C9434000C9451000C9451000C94510049
:100010000C9451000C9451000C9451000C9451001C
:100020000C9451000C9451000C9451000C9451000C
:100030000C9451000C9451000C9451000C945100FC
:100040000C9451000C9451000C9451000C945100EC
:100050000C9451000C9451000C9451000C945100DC
:100060000C9451000C94510011241FBECFEFD8E026
:10007000DEBFCDBF11E0A0E0B1E0E2E8FAE002C0EF
:1000800005900D92A030B107D9F721E0A0E0B1E0D2
:1000900001C01D92A230B207E1F70E9493040C94B4
:1000A0003F050C94000010920101109200018FE0B6
:1000B00084B988EE8AB92FEF89E698E12150804013
:1000C0009040E1F700C0000087E085B92FEF89E696
:1000D00098E1215080409040E1F700C0000015B841
:1000E00081E090E09093010180930001089522E067
:1000F0002093C0009C0140E050E060E472E48FE097
:1001000090E00E942005215031093093C5002093D2
:10011000C40088E18093C100E2ECF0E086E08083D7
:100120008081808380910001909101018260909391
:100130000101809300010895E0ECF0E0908195FFCB
:10014000FDCF8093C6000895D82FC12CD12C760105
:100150000F2EF0E18F2EF7E29F2EA12CB12CF02D67
:10016000C2E0C701B601A50194010E94FE04672BFD
:10017000682B692B21F4C3B98D2F0E949C008FEF4F
:10018000C81AD80AE80AF80AECCF6F927F928F92C9
:100190009F92AF92BF92CF92DF92EF92FF920F9316
:1001A0001F93CF93DF93F82E2FEF89E698E121502C
:1001B00080409040E1F700C0000084EA8093BC00DA
:1001C0000E94F904892BE1F38091B900887F88307F
:1001D00021F088E090E00E94A4008F2D880F8160BC
:1001E000F82E8093BB0084E88093BC000E94F90441
:1001F000892BE1F38091B900887F803431F08091C0
:10020000B900887F90E00E94A4001092BB0084E8AF
:100210008093BC000E94F904892BE1F38091B9001E
:10022000887F883531F08091B900887F90E00E9406
:10023000A400ECEBF0E084E980832FEF89E698E1FD
:10024000215080409040E1F700C0000084EA8083A4
:100250000E94F904892BE1F38091B900887F8830EE
:1002600021F088E090E00E94A400F092BB0084E8B6
:100270008093BC000E94F904892BE1F38091B900BE
:10028000887F803431F08091B900887F90E00E94AF
:10029000A40083E08093BB0084E88093BC000E94AC
:1002A000F904892BE1F38091B900887F883531F01A
:1002B0008091B900887F90E00E94A40084E9809337
:1002C000BC00EFEFF9E628E1E150F0402040E1F713
:1002D00000C000000F2EF3E0AF2EB12CF02DCCEBC0
:1002E000D0E00F2EF4EA8F2EF02D682C09EB10E0F1
:1002F0000F2EFBEBCF2ED12CF02D0F2EF4E8EF2E8E
:10030000F02D6894772474F80F2EF4E99F2EF02DC9
:1003100068820E94F904892BE1F3F8018081887FCB
:10032000883021F088E090E00E94A400F601F0827D
:10033000E8820E94F904892BE1F3F8018081887F2B
:10034000803421F080E490E00E94A400F6017082E5
:10035000E8820E94F904892BE1F3F8018081887F0B
:10036000883521F088E590E00E94A4009882FFEF94
:1003700024E38CE0F15020408040E1F700C0000011
:1003800088820E94F904892BE1F3F8018081887F3B
:10039000883021F088E090E00E94A400F601F0820D
:1003A000E8820E94F904892BE1F3F8018081887FBB
:1003B000803429F08081887F90E00E94A400F601BB
:1003C0001082E8820E94F904892BE1F3F801808110
:1003D000887F883529F08081887F90E00E94A40082
:1003E0009882FFEF24E38CE0F15020408040E1F759
:1003F00000C0000091E0A91AB10809F089CF84EA91
:100400008093BC000E94F904892BE1F38091B9002C
:10041000887F883021F088E090E00E94A400F0926C
:10042000BB0084E88093BC000E94F904892BE1F3AF
:100430008091B900887F803431F08091B900887F45
:1004400090E00E94A40082E08093BB0084E8809347
:10045000BC000E94F904892BE1F38091B900887FE8
:10046000883531F08091B900887F90E00E94A40027
:10047000ECEBF0E084E980832FEF89E698E12150EE
:1004800080409040E1F700C0000084EA80830E9431
:10049000F904892BE1F38091B900887F883021F03D
:1004A00088E090E00E94A400F092BB0084E8809372
:1004B000BC000E94F904892BE1F38091B900887F88
:1004C000803421F080E490E00E94A40080E18093D9
:1004D000BB0084E88093BC000E94F904892BE1F3FF
:1004E0008091B900887F883521F088E590E00E94EE
:1004F000A400ECEBF0E084E980832FEF84E39CE040
:10050000215080409040E1F700C0000084EA8083E1
:100510000E94F904892BE1F38091B900887F88302B
:1005200021F088E090E00E94A400F092BB0084E8F3
:100530008093BC000E94F904892BE1F38091B900FB
:10054000887F803421F080E490E00E94A400109223
:10055000BB0084E88093BC000E94F904892BE1F37E
:100560008091B900887F883521F088E590E00E946D
:10057000A40084E98093BC00EFEFF9E628E1E150A4
:10058000F0402040E1F700C00000DF91CF911F91C3
:100590000F91FF90EF90DF90CF90BF90AF909F9022
:1005A0008F907F906F90089584EA8093BC000E94A2
:1005B000F904892BE1F38091B900887F883021F01C
:1005C00088E090E00E94A4008FE48093BB0084E860
:1005D0008093BC000E94F904892BE1F38091B9005B
:1005E000887F803421F080E490E00E94A40080E1C4
:1005F0008093BB0084E88093BC000E94F904892B9F
:10060000E1F38091B900887F883521F088E590E09A
:100610000E94A400ECEBF0E084E980832FEF84E3F8
:100620009CE0215080409040E1F700C0000084EA47
:1006300080830E94F904892BE1F38091B900887FBF
:10064000883021F088E090E00E94A4008FE480933D
:10065000BB0084E88093BC000E94F904892BE1F37D
:100660008091B900887F803431F08091B900887F13
:1006700090E00E94A4001092BB0084E88093BC002C
:100680000E94F904892BE1F38091B900887F8835B5
:1006900031F08091B900887F90E00E94A40084E945
:1006A0008093BC002FEF84E39CE021508040904079
:1006B000E1F700C000000895CF93DF93C82F84EACC
:1006C0008093BC000E94F904892BE1F38091B9006A
:1006D000887F883021F088E090E00E94A4008FE4B9
:1006E0008093BB0084E88093BC000E94F904892BAE
:1006F000E1F38091B900887F803431F08091B900B6
:10070000887F90E00E94A4001092BB0084E8809350
:10071000BC000E94F904892BE1F38091B900887F25
:10072000883531F08091B900887F90E00E94A40064
:1007300084E98093BC002FEF84E39CE0215080404B
:100740009040E1F700C00000DC2FDD1FDD27DD1F3A
:10075000DD0FDD0FDD0FC6FDD460C5FDD260C4FD29
:10076000D16084EA8093BC000E94F904892BE1F3F4
:100770008091B900887F883021F088E090E00E9465
:10078000A4008FE48093BB0084E88093BC000E94A7
:10079000F904892BE1F38091B900887F803431F02E
:1007A0008091B900887F90E00E94A400D093BB00A4
:1007B00084E88093BC000E94F904892BE1F38091C6
:1007C000B900887F883531F08091B900887F90E04A
:1007D0000E94A40084E98093BC002FEF84E39CE096
:1007E000215080409040E1F700C000000E94D402F8
:1007F000C3FF02C0D8E001C0D0E0C2FDD460C1FD9B
:10080000D260C0FDD16084EA8093BC000E94F904EC
:10081000892BE1F38091B900887F883021F088E04E
:1008200090E00E94A4008FE48093BB0084E8809352
:10083000BC000E94F904892BE1F38091B900887F04
:10084000803431F08091B900887F90E00E94A4004C
:10085000D093BB0084E88093BC000E94F904892BEC
:10086000E1F38091B900887F883531F08091B9003B
:10087000887F90E00E94A400CCEBD0E084E98883DC
:100880002FEF84E39CE0215080409040E1F700C0CE
:1008900000000E94D40284EA88830E94F904892B14
:1008A000E1F38091B900887F883021F088E090E002
:1008B0000E94A4008FE48093BB0084E88093BC0076
:1008C0000E94F904892BE1F38091B900887F80347C
:1008D00031F08091B900887F90E00E94A4008FE001
:1008E0008093BB0084E88093BC000E94F904892BAC
:1008F000E1F38091B900887F883531F08091B900AB
:10090000887F90E00E94A40084E98093BC002FEFD0
:1009100084E39CE0215080409040E1F700C000005B
:10092000DF91CF9108950E94530080E09BE40E94E4
:1009300077000E94E50487E20E94C5002FEF8FE454
:1009400093EC215080409040E1F700C0000088E225
:100950000E945C032FEF8FE493EC21508040904085
:10096000E1F700C0000088E00E945C032FEF8FE4F5
:1009700093EC215080409040E1F700C0000081E0FE
:100980000E945C032FEF8FE493EC21508040904055
:10099000E1F700C0000084E40E945C032FEF8FE4C5
:1009A00093EC215080409040E1F700C000008EE0C1
:1009B0000E945C032FEF8FE493EC21508040904025
:1009C000E1F700C00000289AFECFE4E6F0E0808165
:1009D0008F778083E9EBF0E080818C7F808380E2F9
:1009E0008093B8008FEF8093BB0085E08093BC00BC
:1009F00008958091BC00807890E00895A1E21A2EBD
:100A0000AA1BBB1BFD010DC0AA1FBB1FEE1FFF1FB2
:100A1000A217B307E407F50720F0A21BB30BE40B02
:100A2000F50B661F771F881F991F1A9469F7609549
:100A30007095809590959B01AC01BD01CF01089503
:100A4000052E97FB1EF400940E94370557FD07D032
:100A50000E94FE0407FC03D04EF40C943705509519
:100A60004095309521953F4F4F4F5F4F089590959A
:100A70008095709561957F4F8F4F9F4F0895F894A3
:020A8000FFCFA6
:00000001FF
