:100000000C9434000C9451000C9451000C94510049
:100010000C9451000C946F010C9451000C945100FD
:100020000C9451000C9451000C9451000C9451000C
:100030000C9451000C9451000C9451000C945100FC
:100040000C9451000C9451000C941C010C94510020
:100050000C9451000C9451000C9451000C945100DC
:100060000C9451000C94510011241FBECFEFD8E026
:10007000DEBFCDBF11E0A0E0B1E0ECE5F4E002C0EE
:1000800005900D92AC30B107D9F721E0ACE0B1E0BA
:1000900001C01D92AF30B207E1F70E9493010C94AA
:1000A0002C020C94000080E480937C00EAE7F0E0EE
:1000B00080E880838081846080830895AAE7B0E02F
:1000C00090E89C93ECE7F0E09081907F90839081A2
:1000D000892B80838C9180648C93EAE7F0E08081A7
:1000E00086FDFDCFEAE7F0E080818F778083809105
:1000F000780090917900089522E02093C0009C013F
:1001000040E050E060E472E48FE090E00E940D0275
:10011000215031093093C5002093C40088E98093B1
:10012000C100E2ECF0E086E0808380818083089566
:10013000E0ECF0E080818823ECF78091C600089520
:10014000E0ECF0E0908195FFFDCF8093C60008952C
:100150008091C000882344F4A6ECB0E0E0ECF0E02D
:100160008C9180818823E4F30895D82FC12CD12C61
:1001700076010F2EF0E18F2EF7E29F2EA12CB12CED
:10018000F02DC2E0C701B601A50194010E94EB0168
:10019000672B682B692B21F4C3B98D2F0E94A00017
:1001A0008FEFC81AD80AE80AF80AECCFCF93DF938A
:1001B000CDB7DEB72C970FB6F894DEBF0FBECDBF1C
:1001C0000F2EFCE0DF2EF02D7E018DE0E80EF11CFD
:1001D00084E20E94A00084E20E94A00084E20E94C7
:1001E000A0000E949800853421F481E090E00E94F4
:1001F000B5000E94A800E0E0F1E0DE0111968D2D2F
:1002000001900D928A95E1F783E60E94A0008CE2AE
:100210000E94A0008E010F5F1F4FF80181918F0196
:100220000E94A0000E151F05C1F78AE00E94A000E1
:100230008DE00E94A000CCCF1F920F920FB60F92BC
:100240001124EF92FF920F931F932F933F934F939D
:100250005F936F937F938F939F93AF93BF93CF934E
:10026000DF93EF93FF930091C60010E01016110684
:10027000FCF4C0E0D0E0E0900C01F0900D010E9491
:100280009800F701EC0FFD1F80A32196C017D1073E
:1002900091F7C0E0D0E0E0910C01F0910D01EC0F7E
:1002A000FD1F80A10E94A0002196C017D10799F7D9
:1002B000FF91EF91DF91CF91BF91AF919F918F917E
:1002C0007F916F915F914F913F912F911F910F916E
:1002D000FF90EF900F900FBE0F901F9018951F92F8
:1002E0000F920FB60F9211240E94D60010920E01A9
:1002F0008FE084B988EE8AB92FEF89E698E1215022
:1003000080409040E1F700C0000087E085B92FEF02
:1003100089E698E1215080409040E1F700C000005C
:1003200015B8789408950E94760180E09BE40E94BD
:100330007C000E94D7010E94C5010E94530004E086
:1003400010E080E00E945E00C82F83E50E94A000BC
:10035000C8010C2E02C0959587950A94E2F70E9479
:10036000A0008C2F0E94A0002FEF89E698E1215079
:1003700080409040E1F700C00000E3CF18BC10922D
:10038000B40017BC1092B3000895E4E6F0E0808159
:10039000108288E68AB9239A93EA94BD81E085BDEC
:1003A0009093B0008093B1000E94BE010895E4E6EE
:1003B000F0E080818F778083E9EBF0E080818C7FB3
:1003C000808380E28093B8008FEF8093BB0085E04C
:1003D0008093BC000895A1E21A2EAA1BBB1BFD014D
:1003E0000DC0AA1FBB1FEE1FFF1FA217B307E40714
:1003F000F50720F0A21BB30BE40BF50B661F771F6C
:10040000881F991F1A9469F760957095809590954B
:100410009B01AC01BD01CF010895052E97FB1EF491
:1004200000940E94240257FD07D00E94EB0107FCB4
:1004300003D04EF40C9424025095409530952195AC
:100440003F4F4F4F5F4F0895909580957095619500
:0C0450007F4F8F4F9F4F0895F894FFCF0F
:0C045C003030303636363736413133460A
:00000001FF
