:100000000C9434000C9451000C9451000C94510049
:100010000C9451000C9446010C9451000C94510026
:100020000C9451000C9451000C9451000C9451000C
:100030000C9451000C9451000C9451000C945100FC
:100040000C9451000C9451000C94F3000C9451004A
:100050000C9451000C9451000C9451000C945100DC
:100060000C9451000C94510011241FBECFEFD8E026
:10007000DEBFCDBF11E0A0E0B1E0E2EDF4E002C0F0
:1000800005900D92AC30B107D9F721E0ACE0B1E0BA
:1000900001C01D92AF30B207E1F70E946C010C94D1
:1000A00067020C94000022E02093C0009C0140E015
:1000B00050E060E472E48FE090E00E94480221503A
:1000C00031093093C5002093C40088E98093C100B2
:1000D000E2ECF0E086E08083808180830895E0ECAC
:1000E000F0E080818823ECF78091C6000895E0EC71
:1000F000F0E0908195FFFDCF8093C6000895809138
:10010000C000882344F4A6ECB0E0E0ECF0E08C9171
:1001100080818823E4F30895D82FC12CD12C760157
:100120000F2EF0E18F2EF7E29F2EA12CB12CF02D97
:10013000C2E0C701B601A50194010E942602672B07
:10014000682B692B21F4C3B98D2F0E9477008FEFA4
:10015000C81AD80AE80AF80AECCFCF93DF93CDB7D4
:10016000DEB72C970FB6F894DEBF0FBECDBF0F2EB3
:10017000FCE0DF2EF02D7E018DE0E80EF11C84E224
:100180000E94770084E20E94770084E20E94770058
:100190000E946F00853421F481E090E00E948C0081
:1001A0000E947F00E0E0F1E0DE0111968D2D0190CC
:1001B0000D928A95E1F783E60E9477008CE20E9417
:1001C00077008E010F5F1F4FF80181918F010E9410
:1001D00077000E151F05C1F78AE00E9477008DE0B9
:1001E0000E947700CCCF1F920F920FB60F9211246E
:1001F000EF92FF920F931F932F933F934F935F9331
:100200006F937F938F939F93AF93BF93CF93DF931E
:10021000EF93FF930091C60010E010161106FCF456
:10022000C0E0D0E0E0900C01F0900D010E946F0062
:10023000F701EC0FFD1F80A32196C017D10791F79E
:10024000C0E0D0E0E0910C01F0910D01EC0FFD1F3A
:1002500080A10E9477002196C017D10799F7FF91DE
:10026000EF91DF91CF91BF91AF919F918F917F914E
:100270006F915F914F913F912F911F910F91FF903F
:10028000EF900F900FBE0F901F9018951F920F9236
:100290000FB60F9211240E94AD0010920E018FE054
:1002A00084B988EE8AB92FEF89E698E12150804021
:1002B0009040E1F700C0000087E085B92FEF89E6A4
:1002C00098E1215080409040E1F700C0000015B84F
:1002D000789408955F9A08950E944D0180E09BE410
:1002E0000E9453000E9412020E94EB01E4EBF0E036
:1002F0008AEF80832FEF83ED90E321508040904080
:10030000E1F700C000008AEA80832FEF83ED90E3DD
:10031000215080409040E1F700C0000084E68083D7
:100320002FEF83ED90E3215080409040E1F700C033
:10033000000082E380832FEF83ED90E32150804023
:100340009040E1F700C0000010822FEF83ED90E3B2
:10035000215080409040E1F700C00000C0E06C2FC9
:1003600081E00E94FD012FE78AE196E02150804064
:100370009040E1F700C00000C65FC43081F760E044
:1003800081E00E94FD012FEF83ED90E3215080403A
:100390009040E1F700C00000C0E06C2F82E00E94B6
:1003A000FD012FE78AE196E0215080409040E1F77F
:1003B00000C00000C65FC43081F760E082E00E94A8
:1003C000FD010E946A01FFCF18BC1092B40017BC57
:1003D0001092B3000895E4E6F0E08081108288E690
:1003E0008AB9239A93EA94BD81E085BD9093B000C9
:1003F0008093B1000E94E4010895823061F018F406
:10040000813031F00895833041F0843041F0089517
:100410006093B400089568BD089567BD0895609322
:10042000B3000895E4E6F0E080818F778083E9EB04
:10043000F0E080818C7F808380E28093B8008FEF32
:100440008093BB0085E08093BC000895A1E21A2E42
:10045000AA1BBB1BFD010DC0AA1FBB1FEE1FFF1F68
:10046000A217B307E407F50720F0A21BB30BE40BB8
:10047000F50B661F771F881F991F1A9469F76095FF
:100480007095809590959B01AC01BD01CF010895B9
:10049000052E97FB1EF400940E945F0257FD07D0C3
:1004A0000E94260207FC03D04EF40C945F02509584
:1004B0004095309521953F4F4F4F5F4F0895909550
:1004C0008095709561957F4F8F4F9F4F0895F89459
:0204D000FFCF5C
:0C04D20030303036363637364131334694
:00000001FF
