S019000044697274795F446177675F4D61737465722E7372656352
S11300000C9434000C943E000C943E000C943E007E
S11300100C943E000C943E000C943E000C943E0064
S11300200C943E000C943E000C943E000C943E0054
S11300300C943E000C943E000C943E000C943E0044
S11300400C943E000C943E000C943E000C943E0034
S11300500C943E000C943E000C943E000C943E0024
S11300600C943E000C943E0011241FBECFEFD8E048
S1130070DEBFCDBF0E9442000C9447000C940000E8
S1130080089508950E9441000E944000FBCFF89417
S1050090FFCF9C
S9030000FC
