:100000000C9434000C9451000C9451000C94510049
:100010000C9451000C9451000C9451000C9451001C
:100020000C9451000C9451000C9451000C9451000C
:100030000C9451000C9451000C9451000C945100FC
:100040000C9451000C9451000C9451000C945100EC
:100050000C9451000C9451000C9451000C945100DC
:100060000C9451000C94510011241FBECFEFD8E026
:10007000DEBFCDBF11E0A0E0B1E0E0EAF4E002C0F5
:1000800005900D92A030B107D9F721E0A0E0B1E0D2
:1000900001C01D92A230B207E1F70E94C7000C9484
:1000A0004E020C94000010920101109200018FE0AA
:1000B00084B988EE8AB92FEF89E698E12150804013
:1000C0009040E1F700C0000087E085B92FEF89E696
:1000D00098E1215080409040E1F700C0000015B841
:1000E00081E090E09093010180930001089522E067
:1000F0002093C0009C0140E050E060E472E48FE097
:1001000090E00E942F02215031093093C5002093C6
:10011000C40088E18093C100E2ECF0E086E08083D7
:100120008081808380910001909101018260909391
:100130000101809300010895E0ECF0E0908195FFCB
:10014000FDCF8093C6000895D82FC12CD12C760105
:100150000F2EF0E18F2EF7E29F2EA12CB12CF02D67
:10016000C2E0C701B601A50194010E940D02672BF0
:10017000682B692B21F4C3B98D2F0E949C008FEF4F
:10018000C81AD80AE80AF80AECCF5F9A08950E94C4
:10019000530080E09BE40E9477000E94F4010E94DB
:1001A000D50161E082E40E94B80161E08FE40E9421
:1001B000B80161E08FE40E94B80161E084E50E942B
:1001C000B80161E085E40E94B80161E084E40E9426
:1001D000B8010E94FB006FEF70E084E090E00E94A5
:1001E0000D010E94C500FFCF18BC1092B40017BCCF
:1001F0001092B3000895E4E6F0E08081108280E67A
:100200008AB983E28093B00081E08093B10093EFDC
:1002100094BD85BD0E94F400089542E334E626E9CA
:1002200098EC8AEF48BD47BD5FE36DE073E0515045
:1002300060407040E1F700C0000038BD37BD5FE3AB
:100240006DE073E0515060407040E1F700C0000085
:1002500028BD27BD5FE36DE073E051506040704002
:10026000E1F700C0000098BD97BD5FE36DE073E06B
:10027000515060407040E1F700C0000088BD87BD6C
:100280005FE36DE073E0515060407040E1F700C003
:10029000000018BC17BC5FE36DE073E05150604094
:1002A0007040E1F700C00000BDCFCF93DF93C82FAF
:1002B000D62F84EA8093BC000E940802892BE1F3C8
:1002C0008091B900887F883021F088E090E00E941A
:1002D000A400CC0FC093BB0084E88093BC000E94B4
:1002E0000802892BE1F38091B900887F883131F0D1
:1002F0008091B900887F90E00E94A400D093BB0059
:1003000084E88093BC000E940802892BE1F380916D
:10031000B900887F883231F08091B900887F90E001
:100320000E94A40084E98093BC00DF91CF910895DE
:10033000CF93C82F8FE097E20197F1F700C000003C
:100340006C2F646087E20E9455018FE097E201976D
:10035000F1F700C000006C2F6B7F87E20E9455010F
:100360008FE097E20197F1F700C00000CF91089568
:10037000CF93DF93C62FC860D82FD07FDC2B90E1BE
:10038000899F90011124C22B6D2F87E20E94550195
:100390008D2F0E9498016C2F87E20E9455018C2FAF
:1003A0000E949801DF91CF91089560E083E30E945D
:1003B000B80160E082E30E94B80160E086E00E943C
:1003C000B80160E08CE00E94B80160E088E20E9421
:1003D000B80160E081E00E94B8018FE097E20197E8
:1003E000F1F700C000000895E4E6F0E080818F7727
:1003F0008083E9EBF0E080818C7F808380E28093D2
:10040000B8008FEF8093BB0085E08093BC00089517
:100410008091BC00807890E00895A1E21A2EAA1B7A
:10042000BB1BFD010DC0AA1FBB1FEE1FFF1FA217A4
:10043000B307E407F50720F0A21BB30BE40BF50BA1
:10044000661F771F881F991F1A9469F7609570952A
:10045000809590959B01AC01BD01CF010895052EBB
:1004600097FB1EF400940E94460257FD07D00E949D
:100470000D0207FC03D04EF40C94460250954095B3
:10048000309521953F4F4F4F5F4F08959095809540
:10049000709561957F4F8F4F9F4F0895F894FFCFD0
:00000001FF
