S019000044697274795F446177675F4D61737465722E7372656352
S11300000C9434000C9451000C9451000C94510045
S11300100C9451000C9441010C9451000C94510027
S11300200C9451000C9451000C9451000C94510008
S11300300C9451000C9451000C9451000C945100F8
S11300400C9451000C9451000C94F2020C94510045
S11300500C9451000C9451000C9451000C945100D8
S11300600C9451000C94510011241FBECFEFD8E022
S1130070DEBFCDBF11E0A0E0B1E0E8EFFBE002C0DD
S113008005900D92A436B107D9F721E0A4E6B1E0BA
S113009001C01D92AD39B207E1F70E9498020C9499
S11300A0FA050C94000080E480937C00EAE7F0E019
S11300B080E880838081846080830895AAE7B0E02B
S11300C090E89C93ECE7F0E09081907F908390819E
S11300D0892B80838C9180648C93EAE7F0E08081A3
S11300E086FDFDCFEAE7F0E080818F778083809101
S11300F0780090917900089522E02093C0009C013B
S113010040E050E060E472E48FE090E00E949B05E0
S1130110215031093093C5002093C40088E98093AD
S1130120C100E2ECF0E086E0808380818083089562
S1130130E0ECF0E080818823ECF78091C60008951C
S1130140E0ECF0E0908195FFFDCF8093C600089528
S11301508091C000882344F4A6ECB0E0E0ECF0E029
S11301608C9180818823E4F30895CF93DF93CDB7F6
S1130170DEB764970FB6F894DEBF0FBECDBF182F5D
S1130180092F60E081E00E9461046CE071E080E886
S11301900E9413054AE050E0BE016F5F7F4F812F3C
S11301A0902F0E94BA0561E089810E94610461E098
S11301B08A810E946104C12CD12C76010F2EF0E1BA
S11301C08F2EF7E29F2EA12CB12CF02D02E0C70157
S11301D0B601A50194010E947905672B682B692B50
S11301E021F403B9812F0E94A0008FEFC81AD80A06
S11301F0E80AF80AECCFCF93DF93CDB7DEB72C979C
S11302000FB6F894DEBF0FBECDBF0F2EFCE0DF2E7D
S1130210F02D7E018DE0E80EF11C84E20E94A00026
S113022084E20E94A00084E20E94A0000E94980040
S1130230853421F482E090E00E94B5000E94A80079
S1130240E0E0F1E0DE0111968D2D01900D928A958A
S1130250E1F783E60E94A0008CE20E94A0008E01D8
S11302600F5F1F4FF80181918F010E94A0000E15AE
S11302701F05C1F78AE00E94A0008DE00E94A00043
S1130280CCCF1F920F920FB60F9211240E94FB0045
S11302908FE084B988EE8AB92FEF89E698E121507E
S11302A080409040E1F700C0000087E085B92FEF5F
S11302B089E698E1215080409040E1F700C00000B9
S11302C015B8789408950E94480180E09BE40E9448
S11302D07C000E9426050E94B9040E94D1030E945A
S11302E05300089580E00E945E009093670180931C
S11302F0660120919B0120FD03C0843F914014F4CA
S11303002A9A01C02A98E6E6F1E08281838308955F
S1130310EF92FF920F931F93CF93DF93CDB7DEB786
S113032064970FB6F894DEBF0FBECDBF67E171E0EE
S113033080E80E9413054AE050E0BE016F5F7F4FE2
S113034080916401909165010E94BA058E010F5F4E
S11303501F4F7E0124E0E20EF11C61E0F80181915F
S11303608F010E9461040E151F05B9F720916401E5
S113037030916501C90101969093650180936401F0
S113038006E611E0F801248391E0980F958392E04A
S1130390980F96838D5F878383E50E94A000F80100
S11303A084810E94A000F80185810E94A000F801C8
S11303B086810E94A000F80187810E94A00080919C
S11303C06401909165018D3F910521F410926501BE
S11303D010926401FFEF24E38CE0F1502040804050
S11303E0E1F700C0000081E08093690164960FB6D4
S11303F0F894DEBF0FBECDBFDF91CF911F910F9157
S1130400FF90EF900895CF93DF9383E00E943F0520
S1130410C6E6D1E08C8383E00E943F058D8386E0AD
S11304200E943F058E8386E00E943F058F8381E012
S11304308B83DF91CF91089580919B01882331F0C4
S11304400E94CA0382E0809369010895E6E6F1E020
S113045060858185861720F481E00E94E30304C04F
S1130460682F82E00E94E303E6E6F1E0628583857B
S1130470861720F483E00E94E30304C0682F84E01D
S11304800E94E30382E0809369010895EF92FF9252
S11304900F931F93CF93DF93E12CF12C0E2D1F2D7F
S11304A039C060E081E00E94610460E081E00E9464
S11304B0610461E271E080E80E94130560E08AE86B
S11304C00E94610480919C0180FF10C023C0C3304E
S11304D0D10571F46FE471E08AE80E94130560E0CD
S11304E08AE80E946104C02FD12F02C0CE2DDF2DD7
S11304F061E08EE20E9461048FEF99E628E1815069
S113050090402040E1F700C00000219680919C01BA
S113051080FFDDCF80919C0180FFC3CF81E0809379
S11305206901DF91CF911F910F91FF90EF90089592
S11305300E946301E6E6F1E084E0838310929B016C
S113054014AA10929C0180E08F01D4E0EE24E3947D
S1130550F12CC1E0C80F843151F4F8018381828306
S1130560E38280919C0180FF07C0CF2D1CC0809145
S11305709C0180FD05C001C0CF2DF801D3831FC0AD
S1130580F8018381823099F028F4882341F0813086
S113059051F019C0833079F08430A9F410C00E945E
S11305A072018C2FD6CF0E9488018C2FD2CF0E944B
S11305B003028C2FCECF0E941C028C2FCACF0E9424
S11305C046028C2FC6CF28E030E04CE251E068E0D0
S11305D070E0CA010E947E0483E090E00E94B500AE
S11305E08C2FB7CF1F920F920FB60F921124CF9278
S11305F0DF92EF92FF921F932F933F934F935F935A
S11306006F937F938F939F93AF93BF93EF93FF93D6
S1130610CF93DF93CDB7DEB7A897DEBFCDBF1091E0
S1130620C6001532C1F50E949800182F843499F43D
S11306300E9498008435E1F780919C018E7F80931D
S11306409C0160E081E00E94610465E371E080E860
S11306500E9413052DC0833459F50E9498008D33F0
S1130660E1F70F2EF6E6EF2EF1E0FF2EF02DF70165
S113067080A380919C01816080939C0160E081E073
S11306800E94610468E371E080E80E94130581E040
S1130690F70183830DC0A6E6B1E0D496EC91D4971C
S11306A081E08E0FD4968C93F0E0EA59FE4F10A3AC
S11306B080919A01823009F042C060E080EC0E948F
S11306C06104809186014AE050E0BE016B5E7F4F79
S11306D090E00E94BA05CE0145967C016E0198E136
S11306E0C90ED11C61E0F70181917F010E94610470
S11306F0EC14FD04B9F761E080E20E94610480918A
S113070087014AE050E0BE016F5F7F4F90E00E9496
S1130710BA05CE0101967C016E0194E0C90ED11C8C
S113072061E0F70181917F010E946104EC14FD04F2
S1130730B9F760E080E80E94610410929A01A6E68D
S1130740B1E0D496EC91D49781E08E0FD4968C933B
S1130750F0E0EA59FE4F10A3A8960FB6F894DEBF56
S11307600FBECDBFDF91CF91FF91EF91BF91AF91BC
S11307709F918F917F916F915F914F913F912F91B5
S11307801F91FF90EF90DF90CF900F900FBE0F90CE
S11307901F90189518BC1092B40017BC1092B300A7
S11307A00895E4E6F0E08081108288E68AB9239A0D
S11307B093EA94BD81E085BD9093B0008093B1002D
S11307C00E94CA030895823069F018F4813031F030
S11307D00895833059F0843069F0089518BC60930B
S11307E0B40008951092B40068BD08951092B30047
S11307F067BD089517BC6093B3000895CF93DF934A
S1130800C82FD62F84EA8093BC000E943A05892B16
S1130810E1F38091B900887F883021F088E090E08E
S11308200E94B500CC0FC093BB0084E88093BC0049
S11308300E943A05892BE1F38091B900887F8831C1
S113084031F08091B900887F90E00E94B500D09388
S1130850BB0084E88093BC000E943A05892BE1F335
S11308608091B900887F883231F08091B900887F07
S113087090E00E94B50084E98093BC00DF91CF91A1
S11308800895CF93C82F8FEC97E00197F1F700C03C
S113089000006C2F646087E20E94FE038FEC97E0F7
S11308A00197F1F700C000006C2F6B7F87E20E9474
S11308B0FE038FEC97E00197F1F700C00000CF91A1
S11308C00895CF93DF93C62FC860D82FD07FDC2B39
S11308D090E1899F90011124C22B6D2F87E20E9421
S11308E0FE038D2F0E9441046C2F87E20E94FE03B9
S11308F08C2F0E944104DF91CF910895AF92BF9253
S1130900CF92DF92EF92FF920F931F93CF93DF93D7
S11309105C017B016A01890160E080E80E94610456
S11309201E141F0454F4E501EA0CFB1C61E08991D8
S11309300E946104CE15DF05C9F760E080EC0E94D7
S113094061041016110654F4E6010C0D1D1D61E03E
S113095089910E946104C017D107C9F7DF91CF9133
S11309601F910F91FF90EF90DF90CF90BF90AF90C9
S11309700895CF93DF93CDB7DEB7A2970FB6F8945F
S1130980DEBF0FBECDBF60E083E30E94610460E080
S113099082E30E94610460E086E00E94610460E0FA
S11309A08CE00E94610460E088E20E94610460E0DF
S11309B081E00E9461042FEF89EF90E02150804094
S11309C09040E1F700C0000081E1E2E4F1E0DE01E3
S11309D0119601900D928A95E1F781E1E3E5F1E04A
S11309E0DE01529601900D928A95E1F720E230E003
S11309F0AE014E5E5F4F60E270E0CE0101960E9450
S1130A007E042FEF8EE994E2215080409040E1F77C
S1130A1000C00000A2960FB6F894DEBF0FBECDBF93
S1130A20DF91CF910895CF93DF93EB0160E00E94B3
S1130A3061048881882339F0219661E00E94610471
S1130A4089918111FACFDF91CF910895E4E6F0E026
S1130A5080818F778083E9EBF0E080818C7F8083D5
S1130A6080E28093B8008FEF8093BB0085E0809391
S1130A70BC0008958091BC00807890E00895CF93E5
S1130A80C82F84EA8093BC00ECEBF0E090819923BA
S1130A90ECF78091B900887F883021F088E090E0FD
S1130AA00E94B500CC0FC160C093BB0080E8809366
S1130AB0BC00ECEBF0E080818823ECF78091B90076
S1130AC0887F803421F080E490E00E94B500EBEB55
S1130AD0F0E0808198E5908394E89093BC00ECEB7F
S1130AE0F0E090819923ECF794E99093BC00CF91C6
S1130AF00895A1E21A2EAA1BBB1BFD010DC0AA1F5B
S1130B00BB1FEE1FFF1FA217B307E407F50720F072
S1130B10A21BB30BE40BF50B661F771F881F991FED
S1130B201A9469F760957095809590959B01AC0136
S1130B30BD01CF010895052E97FB1EF400940E9479
S1130B40B20557FD07D00E94790507FC03D04EF487
S1130B500C94B20550954095309521953F4F4F4FD9
S1130B605F4F089590958095709561957F4F8F4F55
S1130B709F4F08954532510520F4423010F00C94F3
S1130B80C505FB011082CB010895BB274A3031F41F
S1130B90992322F4BDE2909581959F4F0C94D10541
S1130BA0BB27FB015527AA27880F991FAA1FA41743
S1130BB010F0A41B83955051B9F7A05DAA3308F037
S1130BC0A95DA193009779F7B111B1931192CB016B
S1130BD00C94EA05DC01FC01672F71917723E1F79E
S1130BE0329704C07C916D9370836291AE17BF07F6
S10B0BF0C8F30895F894FFCF47
S1130BF83030303636363736413133464572726FC7
S1130C08726D73673A200053656E64696E673A20A3
S1130C1800436F6E6E656374696E67004E6F207370
S1130C287461746500444953434F4E4E45435445DB
S1130C384400202020446972747944617767202035
S1130C482020002077656C636F6D657320796F755C
S1070C582021200033
S9030000FC
