S019000044697274795F446177675F4D61737465722E7372656352
S11300000C9434000C9446000C9446000C94460066
S11300100C9446000C9446000C9446000C94460044
S11300200C9446000C9446000C9446000C94460034
S11300300C9446000C9446000C9446000C94460024
S11300400C9446000C9446000C9446000C94460014
S11300500C9446000C9446000C9446000C94460004
S11300600C9446000C94460011241FBECFEFD8E038
S1130070DEBFCDBF21E0A0E0B1E001C01D92A13000
S1130080B207E1F70E9479000C94C3000C940000BD
S11300908EE084B988E68AB986E085B981E08093E8
S11300A000010895CF93DF93C2ECD0E028812F7331
S11300B028839C0140E050E060E271EA87E090E030
S11300C00E94A400232F33272093C5002093C4004B
S11300D088E18093C1008881877F888388818F7CB1
S11300E0888380910001826080930001DF91CF9129
S11300F008950E94480080E092EC0E94520080E043
S113010090E00895A1E21A2EAA1BBB1BFD010DC0AD
S1130110AA1FBB1FEE1FFF1FA217B307E407F507B3
S113012020F0A21BB30BE40BF50B661F771F881F8F
S1130130991F1A9469F760957095809590959B0125
S1130140AC01BD01CF010895052E97FB1EF4009468
S11301500E94BB0057FD07D00E94820007FC03D019
S11301604EF40C94BB0050954095309521953F4F2B
S11301704F4F5F4F089590958095709561957F4F8F
S10D01808F4F9F4F0895F894FFCFAE
S9030000FC
