S019000044697274795F446177675F4D61737465722E7372656352
S11300000C9434000C9446000C9446000C94460066
S11300100C9446000C9446000C9446000C94460044
S11300200C9446000C9446000C9446000C94460034
S11300300C9446000C9446000C9446000C94460024
S11300400C9446000C9446000C9446000C94460014
S11300500C9446000C9446000C9446000C94460004
S11300600C9446000C94460011241FBECFEFD8E038
S1130070DEBFCDBF21E0A0E0B1E001C01D92A230FF
S1130080B207E1F70E9407010C9460010C94000090
S113009010920101109200018EE084B988E68AB9B9
S11300A02FE38DE093E0215080409040E1F700C0C1
S11300B0000086E085B92FE38DE093E02150804075
S11300C09040E1F700C000008FEF85B981E090E037
S11300D090930101809300010895CF93DF93C2ECC4
S11300E0D0E028812F7328839C0140E050E060E237
S11300F071EA87E090E00E944101232F3327209387
S1130100C5002093C40088E18093C1008881877F63
S1130110888388818F7C888380910001909101017C
S113012082609093010180930001DF91CF91089543
S1130130E0ECF0E080818823ECF78DEF85B98091C5
S1130140C6000895E0ECF0E0908195FFFDCF9DEFAF
S113015095B92FE33DE093E0215030409040E1F722
S113016000C000008093C60082E085B90895D82FAE
S1130170C12CD12C76010F2EF0EA8F2EF6E89F2E9B
S1130180AA24A394B12CF02D1DEFC2E0C701B6013F
S1130190A50194010E941F01611571058105910556
S11301A029F4C3B98D2F0E94A20006C06035734C98
S11301B08105910509F413B98FEFC81AD80AE80A22
S11301C0F80AE4CF84E20E94A20084E20E94A20022
S11301D084E20E94A2008FE493EC0197F1F700C03F
S11301E000000E949800853431F48DEF85B981E0D8
S11301F090E00E94B70083E40E94A2008CE20E9477
S1130200A20085E40E94A2008DEF85B9089582E0E2
S113021084B985B92FE38DE093E02150804090406C
S1130220E1F700C000000E94480080E092EC0E94C8
S11302306D000E94E2008DEF85B985B9FFCFA1E280
S11302401A2EAA1BBB1BFD010DC0AA1FBB1FEE1F4C
S1130250FF1FA217B307E407F50720F0A21BB30B97
S1130260E40BF50B661F771F881F991F1A9469F713
S113027060957095809590959B01AC01BD01CF016F
S11302800895052E97FB1EF400940E94580157FD13
S113029007D00E941F0107FC03D04EF40C945801B0
S11302A050954095309521953F4F4F4F5F4F08959E
S11302B090958095709561957F4F8F4F9F4F0895CE
S10702C0F894FFCFDC
S9030000FC
