S019000044697274795F446177675F4D61737465722E7372656352
S11300000C9434000C9451000C9451000C94510045
S11300100C9451000C9455010C9451000C94510013
S11300200C9451000C9451000C9451000C94510008
S11300300C9451000C9451000C9451000C945100F8
S11300400C9451000C9451000C9413010C94510025
S11300500C9451000C9451000C9451000C945100D8
S11300600C9451000C94510011241FBECFEFD8E022
S1130070DEBFCDBF11E0A0E0B1E0E2E5F6E002C0F2
S113008005900D92AC30B107D9F721E0ACE0B1E0B6
S113009001C01D92AF30B207E1F70E942E020C940A
S11300A027030C94000080E480937C00EAE7F0E0EE
S11300B080E88083808184608083089590E89093B1
S11300C07A0090917C00907F90937C0090917C00CA
S11300D0892B80937C0080917A00806480937A00DD
S11300E080917A0086FDFCCF80917A008F7780938F
S11300F07A008091780090917900089522E020930D
S1130100C0009C0140E050E060E472E48FE090E0C5
S11301100E940803215031093093C5002093C40084
S113012088E98093C100E2ECF0E086E0808380817E
S1130130808308958091C00087FFFCCF8091C60022
S113014008959091C00095FFFCCF8093C600089558
S11301508091C00087FF03C08091C600F9CF089545
S1130160C82FC12CD12C760180E1882E87E2982EED
S1130170A12CB12CD2E0C701B601A50194010E94C3
S1130180E602672B682B692B21F4D3B98C2F0E94CC
S1130190A1008FEFC81AD80AE80AF80AECCFCF9367
S11301A0DF93CDB7DEB72C970FB6F894DEBF0FBE42
S11301B0CDBF8CE0F82E6E018DE0C80ED11C84E218
S11301C00E94A10084E20E94A10084E20E94A10096
S11301D00E949A00853421F482E090E00E94B000ED
S11301E00E94A800E0E0F1E0DE0111968F2D01905D
S11301F00D928A95E1F783E60E94A1008CE20E94A9
S1130200A1008E010F5F1F4FF80181918F010E94A1
S1130210A1000C151D05C1F78AE00E94A1008DE024
S11302200E94A100CCCF1F920F920FB60F921124FF
S1130230EF92FF920F931F932F933F934F935F93EC
S11302406F937F938F939F93AF93BF93CF93DF93DA
S1130250EF93FF930091C600C0E0D0E010E0C01718
S1130260D10764F4E0900C01F0900D010E949A0013
S1130270F701EC0FFD1F80A32196F1CFFF91EF91C1
S1130280DF91CF91BF91AF919F918F917F916F91AA
S11302905F914F913F912F911F910F91FF90EF909C
S11302A00F900FBE0F901F9018951F920F920FB6CC
S11302B00F9211240E94CF0010920E018FE084B996
S11302C088EE8AB92FEF89E698E12150804090406A
S11302D0E1F700C0000087E085B92FEF89E698E1D7
S11302E0215080409040E1F700C0000015B8789498
S11302F00895CF93DF93C0910C01D0910D0180E05C
S11303000E945E009983888380910E0180FD09C05C
S1130310E0910C01F0910D0180819181843F914025
S113032014F42A9A01C02A98E0910C01F0910D016D
S1130330828184ABDF91CF910895CF93DF93E091D5
S11303400C01F0910D0180A1811119C0108681A1C9
S1130350818782A1828783A1838784A180930E01F0
S113036010A211A212A213A214A2848581110CC09E
S11303708585811109C0E0910C01F0910D0183E0A4
S113038084ABDF91CF910895C0E0D0E0E0910C01FF
S1130390F0910D01EC0FFD1F84850E94A1002196B0
S11303A0C430D10599F7E0910C01F0910D01148648
S11303B0158616861786DFCFCF93DF93C0910C0185
S11303C0D0910D0183E00E94AF028C83C0910C0197
S11303D0D0910D0183E00E94AF028D83C0910C0186
S11303E0D0910D0183E00E94AF028E83C0910C0175
S11303F0D0910D0183E00E94AF028F83E0910C0144
S1130400F0910D0181E084ABDF91CF910895E091EB
S11304100C01F0910D01608581E00E948002E09161
S11304200C01F0910D01618582E00E948002E0914F
S11304300C01F0910D01628583E00E948002E0913D
S11304400C01F0910D01638584E00E948002E0912B
S11304500C01F0910D0182E084AB08950E945C01CF
S113046080E09BE40E947E000E949B020E946F0237
S11304700E945300E0910C01F0910D0181E084ABE6
S1130480C0E0E0910C01F0910D01CA3011F0CF5F92
S113049006C084A990E09383828314AAC0E084A94F
S11304A0813059F038F0823059F0833061F40E9481
S11304B00702E7CF0E947901E4CF0E949D01E1CFBA
S11304C00E94DC01DECF83E090E00E94B000D9CF2F
S11304D018BC1092B40017BC1092B3000895E4E65F
S11304E0F0E08081108288E68AB9239A93EA94BD69
S11304F081E085BD9093B0008093B1000C946802B4
S1130500823069F018F4813031F00895833059F065
S1130510843069F0089518BC6093B4000895109273
S1130520B40068BD08951092B30067BD089517BC68
S11305306093B3000895E4E6F0E080818F778083D0
S1130540E9EBF0E080818C7F808380E28093B800C7
S11305508FEF8093BB0085E08093BC000895CF9318
S1130560C82F84EA8093BC008091BC0087FFFCCF35
S11305708091B900887F883021F088E090E00E9463
S1130580B000CC0FC160C093BB0080E88093BC0076
S11305908091BC0087FFFCCF8091B900887F8034B4
S11305A021F080E490E00E94B0008091BB0098E5C7
S11305B09093BB0094E89093BC009091BC0097FF8B
S11305C0FCCF94E99093BC00CF910895A1E21A2E38
S11305D0AA1BBB1BFD010DC0AA1FBB1FEE1FFF1FE3
S11305E0A217B307E407F50720F0A21BB30BE40B33
S11305F0F50B661F771F881F991F1A9469F760957A
S11306007095809590959B01AC01BD01CF01089533
S1130610052E97FB1EF400940E941F0357FD07D07C
S11306200E94E60207FC03D04EF40C941F0350957D
S11306304095309521953F4F4F4F5F4F08959095CA
S11306408095709561957F4F8F4F9F4F0895F894D3
S1050650FFCFD6
S10F06523030303636363736413133460E
S9030000FC
