S019000044697274795F446177675F4D61737465722E7372656352
S11300000C9434000C9451000C9451000C94510045
S11300100C9451000C943C010C9451000C9451002C
S11300200C9451000C9451000C9451000C94510008
S11300300C9451000C9451000C9451000C945100F8
S11300400C9451000C9451000C94E8000C94510051
S11300500C9451000C9451000C9451000C945100D8
S11300600C9451000C94510011241FBECFEFD8E022
S1130070DEBFCDBF11E0A0E0B1E0EEE4F5E002C0E8
S113008005900D92AC30B107D9F721E0ACE0B1E0B6
S113009001C01D92AF30B207E1F70E9462010C94D7
S11300A0A5020C94000022E02093C0009C0140E0D3
S11300B050E060E472E48FE090E00E9486022150F8
S11300C031093093C5002093C40088E98093C100AE
S11300D0E2ECF0E086E08083808180830895809163
S11300E0C00087FFFCCF8091C60008959091C000A6
S11300F095FFFCCF8093C60008958091C00087FFD0
S113010003C08091C600F9CF0895C82FC12CD12C0B
S1130110760180E1882E87E2982EA12CB12CD2E0C2
S1130120C701B601A50194010E946402672B682BE4
S1130130692B21F4D3B98C2F0E9476008FEFC81A53
S1130140D80AE80AF80AECCFCF93DF93CDB7DEB72D
S11301502C970FB6F894DEBF0FBECDBF8CE0F82EFF
S11301606E018DE0C80ED11C84E20E94760084E208
S11301700E94760084E20E9476000E946F0085341B
S113018021F481E090E00E9485000E947D00E0E07F
S1130190F1E0DE0111968F2D01900D928A95E1F721
S11301A083E60E9476008CE20E9476008E010F5F47
S11301B01F4FF80181918F010E9476000C151D05D7
S11301C0C1F78AE00E9476008DE00E947600CCCFD1
S11301D01F920F920FB60F921124EF92FF920F937A
S11301E01F932F933F934F935F936F937F938F93BB
S11301F09F93AF93BF93CF93DF93EF93FF93C091FC
S1130200C60000E010E0D0E00C171D076CF4E0908D
S11302100C01F0900D010E946F00F701E00FF11F37
S113022080A30F5F1F4FF0CF00E010E00C171D07F5
S113023064F4E0910C01F0910D01E00FF11F80A135
S11302400E9476000F5F1F4FF1CFFF91EF91DF9176
S1130250CF91BF91AF919F918F917F916F915F915A
S11302604F913F912F911F910F91FF90EF900F901D
S11302700FBE0F901F9018951F920F920FB60F92FA
S113028011240E94A40010920E018FE084B988EE1C
S11302908AB92FEF8FE493EC215080409040E1F72E
S11302A000C0000087E085B92FEF8FE493EC215064
S11302B080409040E1F700C0000015B8789408959C
S11302C05F9A08950E94430180E09BE40E945300DA
S11302D00E944B020E9412020E9478010E94600157
S11302E0FFCF18BC1092B40017BC1092B30008954D
S11302F0E4E6F0E08081108280E68AB983E28093AC
S1130300B00081E08093B10093EF94BD85BD0C945F
S11303107101CF93DF93C82FD62F84EA8093BC005A
S11303200E945F02892BE1F38091B900887F8830B5
S113033021F088E090E00E948500CC0FC093BB00C0
S113034084E88093BC000E945F02892BE1F38091D2
S1130350B900887F883131F08091B900887F90E0BE
S11303600E948500D093BB0084E88093BC000E9467
S11303705F02892BE1F38091B900887F883231F0E4
S11303808091B900887F90E00E94850084E9809381
S1130390BC00DF91CF910895CF93C82F2FEF89EF41
S11303A090E0215080409040E1F700C000006C2FA5
S11303B0646087E20E9489012FEF89EF90E0215069
S11303C080409040E1F700C000006C2F6B7F87E213
S11303D00E9489012FEF89EF90E0215080409040E6
S11303E0E1F700C00000CF910895CF93DF93D82F99
S11303F0D07FD62BD860686090E1899F900111244A
S1130400C62FC22B6D2F87E20E9489018D2F0E9477
S1130410CC016C2F87E20E9489018C2FDF91CF9150
S11304200C94CC0160E083E30E94F50160E082E378
S11304300E94F50160E086E00E94F50160E08CE036
S11304400E94F50160E088E20E94F50160E081E02D
S11304500E94F5012FEF89EF90E0215080409040F9
S1130460E1F700C0000061E082E40E94F50161E070
S11304708FE40E94F50161E08FE40E94F50161E0E0
S113048084E50E94F50161E085E40E94F50161E0E4
S113049084E40C94F501E4E6F0E080818F778083B6
S11304A0E9EBF0E080818C7F808380E28093B80068
S11304B08FEF8093BB0085E08093BC00089580910A
S11304C0BC00807890E00895A1E21A2EAA1BBB1B01
S11304D0FD010DC0AA1FBB1FEE1FFF1FA217B3070C
S11304E0E407F50720F0A21BB30BE40BF50B661F22
S11304F0771F881F991F1A9469F7609570958095E6
S113050090959B01AC01BD01CF010895052E97FB89
S11305101EF400940E949D0257FD07D00E946402BD
S113052007FC03D04EF40C949D02509540953095F1
S113053021953F4F4F4F5F4F08959095809570954B
S111054061957F4F8F4F9F4F0895F894FFCF22
S10F054E30303036363637364131334613
S9030000FC
