S011000041544D6567613136382E7372656365
S11300000C9434000C9451000C94F3010C945100A2
S11300100C9451000C94E9010C9451000C9451007F
S11300200C9451000C9451000C9451000C94510008
S11300300C9451000C9451000C9451000C945100F8
S11300400C9451000C9451000C9451000C945100E8
S11300500C9451000C9451000C9451000C945100D8
S11300600C9451000C94510011241FBECFEFD4E026
S1130070DEBFCDBF11E0A0E0B1E0E4E2F6E002C0F3
S113008005900D92AC30B107D9F721E0ACE0B1E0B6
S113009001C01D92AB31B207E1F70E94C0010C947C
S11300A010030C94000010920D0110920C0178942E
S11300B088E08093690082E08DBB84E080936800CF
S11300C080E180936D008FE084B988EE8AB92FEFC8
S11300D089E698E1215080409040E1F700C000009B
S11300E087E085B92FEF89E698E121508040904060
S11300F0E1F700C0000015B881E090E090930D0195
S113010080930C01089522E02093C0009C0140E0FC
S113011050E060E472E48FE090E00E94F10221502C
S113012031093093C5002093C40088E18093C10055
S1130130E2ECF0E086E080838081808380910C0192
S113014090910D01826090930D0180930C010895AC
S1130150E0ECF0E080818823ECF78091C6000895FC
S1130160E0ECF0E0908195FFFDCF8093C600089508
S11301708091C000882344F4A6ECB0E0E0ECF0E009
S11301808C9180818823E4F308952FEF89E698E128
S1130190215080409040E1F700C000008DE20E94B1
S11301A0B0008DE20E94B0008DE20E94B0008AE0AF
S11301B00E94B0008DE00E94B0002FE38DE093E038
S11301C0215080409040E1F700C0000060E070E002
S11301D081E090E00E947A028BE792E90197F1F7BF
S11301E000C000000E94B80080E090E00895EF9203
S11301F0FF920F931F93CF93DF93CDB7DEB72C9766
S11302000FB6F894DEBF0FBECDBF2FEF89E698E19D
S1130210215080409040E1F700C000008DE20E9430
S1130220B0008DE20E94B0008DE20E94B0008AE02E
S11302300E94B0008DE00E94B000EFE3FDE023E0F7
S1130240E150F0402040E1F700C0000060E070E0C1
S113025081E090E00E947A028BE792E90197F1F73E
S113026000C000000E94B80084E20E94B00084E252
S11302700E94B00084E20E94B0000E94A80061E0E5
S113028070E090E00E947A020E94A80061E070E0B1
S113029090E00E947A020E94A80061E070E090E081
S11302A00E947A029FE3EDE0F3E09150E040F040D9
S11302B0E1F700C000000E94B8008CE0E0E0F1E04B
S11302C0DE01119601900D928A95E1F783E60E9472
S11302D0B0008CE20E94B0008E010F5F1F4F7E01C0
S11302E02DE0E20EF11CF80181918F010E94B00013
S11302F00E151F05C1F78AE00E94B0008DE00E9430
S1130300B000FFE32DE083E0F15020408040E1F7AE
S113031000C000002C960FB6F894DEBF0FBECDBF10
S1130320DF91CF911F910F91FF90EF900895D82FF7
S1130330C12CD12C76010F2EF0E18F2EF7E29F2EE7
S1130340A12CB12CF02DC2E0C701B601A501940186
S11303500E94CF02672B682B692B21F4C3B98D2F20
S11303600E94B0008FEFC81AD80AE80AF80AECCF46
S11303708BB11BB80895299A089585B115B80895CD
S113038010921A010E94530080E09BE40E948300B3
S11303900E94B6020E9497020E94C5000E94B80102
S11303A00E94BD010E94BB012FEF89E698E1215014
S11303B080409040E1F700C000000E94BD012FEF93
S11303C089E698E1215080409040E1F700C00000A8
S11303D0E9CF1F920F920FB60F9211240F900FBE08
S11303E00F901F9018951F920F920FB60F92112421
S11303F02F933F934F935F936F937F938F939F9329
S1130400AF93BF93EF93FF930E94F700FF91EF9197
S1130410BF91AF919F918F917F916F915F914F9118
S11304203F912F910F900FBE0F901F901895CF936F
S1130430DF93C82FD62F84EA8093BC000E94CA029F
S1130440892BE1F38091B900887F883021F088E01E
S113045090E00E949701CC0FC093BB0084E8809386
S1130460BC000E94CA02892BE1F38091B900887F05
S1130470883131F08091B900887F90E00E94970123
S1130480D093BB0084E88093BC000E94CA02892BED
S1130490E1F38091B900887F883231F08091B9000E
S11304A0887F90E00E94970184E98093BC00DF91EB
S11304B0CF910895CF93C82F8FE097E20197F1F77A
S11304C000C000006C2F646087E20E9417028FE076
S11304D097E20197F1F700C000006C2F6B7F87E271
S11304E00E9417028FE097E20197F1F700C0000025
S11304F0CF910895CF93DF93C62FC860D82FD07FB4
S1130500DC2B90E1899F90011124C22B6D2F87E28F
S11305100E9417028D2F0E945A026C2F87E20E94BC
S113052017028C2F0E945A02DF91CF91089560E048
S113053083E30E947A0260E082E30E947A0260E030
S113054086E00E947A0260E08CE00E947A0260E019
S113055088E20E947A0260E081E00E947A028FE0E1
S113056097E20197F1F700C000000895E4E6F0E097
S113057080818F778083E9EBF0E080818C7F8083BA
S113058080E28093B8008FEF8093BB0085E0809376
S1130590BC0008958091BC00807890E00895A1E2A9
S11305A01A2EAA1BBB1BFD010DC0AA1FBB1FEE1FE9
S11305B0FF1FA217B307E407F50720F0A21BB30B34
S11305C0E40BF50B661F771F881F991F1A9469F7B0
S11305D060957095809590959B01AC01BD01CF010C
S11305E00895052E97FB1EF400940E94080357FDFE
S11305F007D00E94CF0207FC03D04EF40C940803EA
S113060050954095309521953F4F4F4F5F4F08953A
S113061090958095709561957F4F8F4F9F4F08956A
S1070620F894FFCF78
S10F062430303036363637364130414134
S9030000FC
