S011000041544D6567613136382E7372656365
S11300000C9434000C9451000C9479000C9451001D
S11300100C9451000C9463000C9451000C94510006
S11300200C9451000C9451000C94A9000C941201EE
S11300300C94CD000C9451000C9451000C9451007C
S11300400C9451000C9451000C9451000C945100E8
S11300500C9451000C9451000C9451000C945100D8
S11300600C9451000C94510011241FBECFEFD4E026
S1130070DEBFCDBF11E0A0E0B1E0EAE8F2E002C0EB
S113008005900D92A030B107D9F721E0A0E0B1E0CE
S113009001C01D92A331B207E1F70E9453000C94F2
S11300A043010C94000010920C010E948F0078947C
S11300B08DE20E940701809111018823E1F383E519
S11300C00E940701F5CF1F920F920FB60F921124D1
S11300D08F9380910C01811104C081E080930C0105
S11300E002C010920C018F910F900FBE0F901F90C1
S11300F018951F920F920FB60F9211248F9380912F
S11301000C01811104C081E080930C0102C01092A3
S11301100C018F910F900FBE0F901F901895809136
S113012084009091850001969093890080938800C3
S113013080EC8093800081E88093810080E286BB1C
S113014082E280936F001092100110921101219AA3
S113015008951F920F920FB60F9211248F939F93BD
S1130160809186009091870080539F4F90938B00DD
S113017080938A001092120181E080930E0184E042
S113018086BB189903C086E080936F009F918F917E
S11301900F900FBE0F901F9018951F920F920FB6DD
S11301A00F9211248F939F93EF93FF9393B18091B8
S11301B00E018823B9F090FF07C080910E01909141
S11301C01201892B8093120180910E01880F809374
S11301D00E01EAE8F0E08081918185579F4F918379
S11301E080830CC081E0809311018091120180937F
S11301F00F0180E286BB82E280936F00FF91EF9152
S11302009F918F910F900FBE0F901F901895909112
S113021010019111FCCF809580930D018AE08093A9
S1130220100108951F920F920FB60F9211248F930D
S11302309F93EF93FF93E8E8F0E0808191818557E5
S11302409F4F9183808380911001882399F081507E
S113025080931001893059F080910D0180FD02C016
S113026090EC01C090E8869580930D0101C090E860
S113027090938000FF91EF919F918F910F900FBE0B
S10D02800F901F901895F894FFCF1B
S9030000FC
