S011000041544D6567613136382E7372656365
S11300000C9434000C9403020C9451000C94510091
S11300100C9451000C94E0010C9451000C94510088
S11300200C9451000C9451000C9451000C94510008
S11300300C9451000C9451000C9467020C9420020F
S11300400C9451000C9451000C9451000C945100E8
S11300500C9451000C9451000C9451000C945100D8
S11300600C9451000C94510011241FBECFEFD4E026
S1130070DEBFCDBF11E0A0E0B1E0E4E1F7E002C0F3
S113008005900D92A632B107D9F721E0A6E2B1E0BE
S113009001C01D92AB33B207E1F70E94B8010C9482
S11300A088030C9400001092270110922601789482
S11300B088E08093690082E08DBB84E080936800CF
S11300C080E180936D008FE084B988EE8AB92FEFC8
S11300D089E698E1215080409040E1F700C000009B
S11300E087E085B92FEF89E698E121508040904060
S11300F0E1F700C0000015B881E090E0909327017B
S113010080932601089522E02093C0009C0140E0E2
S113011050E060E472E48FE090E00E9469032150B3
S113012031093093C5002093C40088E18093C10055
S1130130E2ECF0E086E08083808180838091260178
S1130140909127018260909327018093260108955E
S1130150E0ECF0E080818823ECF78091C6000895FC
S1130160E0ECF0E0908195FFFDCF8093C600089508
S11301708091C000882344F4A6ECB0E0E0ECF0E009
S11301808C9180818823E4F308952FEF89E698E128
S1130190215080409040E1F700C000008DE20E94B1
S11301A0B0008DE20E94B0008DE20E94B0008AE0AF
S11301B00E94B0008DE00E94B0002FE38DE093E038
S11301C0215080409040E1F700C0000060E070E002
S11301D081E090E00E94F2028BE792E90197F1F747
S11301E000C000000E94B80080E090E00895EF9203
S11301F0FF920F931F93CF93DF93CDB7DEB72C9766
S11302000FB6F894DEBF0FBECDBF2FEF89E698E19D
S1130210215080409040E1F700C000008DE20E9430
S1130220B0008DE20E94B0008DE20E94B0008AE02E
S11302300E94B0008DE00E94B000EFE3FDE023E0F7
S1130240E150F0402040E1F700C0000060E070E0C1
S113025081E090E00E94F2028BE792E90197F1F7C6
S113026000C000000E94B80084E20E94B00084E252
S11302700E94B00084E20E94B0000E94A80061E0E5
S113028070E090E00E94F2020E94A80061E070E039
S113029090E00E94F2020E94A80061E070E090E009
S11302A00E94F2029FE3EDE0F3E09150E040F04061
S11302B0E1F700C000000E94B8008CE0E0E0F1E04B
S11302C0DE01119601900D928A95E1F783E60E9472
S11302D0B0008CE20E94B0008E010F5F1F4F7E01C0
S11302E02DE0E20EF11CF80181918F010E94B00013
S11302F00E151F05C1F78AE00E94B0008DE00E9430
S1130300B000FFE32DE083E0F15020408040E1F7AE
S113031000C000002C960FB6F894DEBF0FBECDBF10
S1130320DF91CF911F910F91FF90EF900895D82FF7
S1130330C12CD12C76010F2EF0E18F2EF7E29F2EE7
S1130340A12CB12CF02DC2E0C701B601A501940186
S11303500E944703672B682B692B21F4C3B98D2FA7
S11303600E94B0008FEFC81AD80AE80AF80AECCF46
S1130370109234010E9453000E942E030E940F0326
S113038080E09BE40E9483000E94EA010E94C50071
S11303900E94F7008CE091E00E9458028DE20E94D6
S11303A04D02809139018823E1F30E94FA01C82F9C
S11303B061E00E94F2028C2F90E00E94B000EECF28
S11303C01F920F920FB60F9211240F900FBE0F9031
S11303D01F90189578945B9A81E085BD92E0909384
S11303E06E00909369008DBB109238011092390110
S11303F0539A0895809139018823E1F310923901C9
S11304008091370108951F920F920FB60F92112415
S11304108F9386B5805388BD10923A0181E0809312
S113042036014A9904C0E89886E080936E0084E01F
S113043085BBE09A8F910F900FBE0F901F90189577
S11304401F920F920FB60F9211248F939F9399B11D
S113045080913601882371F092FF05C090913A0192
S1130460982B90933A01880F8093360188B585576D
S113047088BD0CC081E08093390190913A0190933A
S1130480370192E090936E00E09A8DBB9F918F911B
S11304900F900FBE0F901F901895909138019111F5
S11304A0FCCF8095809335018AE0809338010895CC
S11304B0CF93DF93EC018881882331F021960E9449
S11304C04D0289918111FBCFDF91CF9108951F9245
S11304D00F920FB60F9211248F939F9387B5855770
S11304E087BD80913801882399F081508093380129
S11304F0893049F080913501982F909591708695B7
S11305008093350101C090E090FD5B9A90FF5B9869
S11305109F918F910F900FBE0F901F901895CF93BE
S1130520DF93C82FD62F84EA8093BC000E94420335
S1130530892BE1F38091B900887F883021F088E02D
S113054090E00E949701CC0FC093BB0084E8809395
S1130550BC000E944203892BE1F38091B900887F9B
S1130560883131F08091B900887F90E00E94970132
S1130570D093BB0084E88093BC000E944203892B83
S1130580E1F38091B900887F883231F08091B9001D
S1130590887F90E00E94970184E98093BC00DF91FA
S11305A0CF910895CF93C82F8FE097E20197F1F789
S11305B000C000006C2F646087E20E948F028FE00D
S11305C097E20197F1F700C000006C2F6B7F87E280
S11305D00E948F028FE097E20197F1F700C00000BC
S11305E0CF910895CF93DF93C62FC860D82FD07FC3
S11305F0DC2B90E1899F90011124C22B6D2F87E29F
S11306000E948F028D2F0E94D2026C2F87E20E94DB
S11306108F028C2F0E94D202DF91CF91089560E067
S113062083E30E94F20260E082E30E94F20260E04F
S113063086E00E94F20260E08CE00E94F20260E038
S113064088E20E94F20260E081E00E94F2028FE000
S113065097E20197F1F700C000000895E4E6F0E0A6
S113066080818F778083E9EBF0E080818C7F8083C9
S113067080E28093B8008FEF8093BB0085E0809385
S1130680BC0008958091BC00807890E00895A1E2B8
S11306901A2EAA1BBB1BFD010DC0AA1FBB1FEE1FF8
S11306A0FF1FA217B307E407F50720F0A21BB30B43
S11306B0E40BF50B661F771F881F991F1A9469F7BF
S11306C060957095809590959B01AC01BD01CF011B
S11306D00895052E97FB1EF400940E94800357FD95
S11306E007D00E94470307FC03D04EF40C94800308
S11306F050954095309521953F4F4F4F5F4F08954A
S113070090958095709561957F4F8F4F9F4F089579
S1070710F894FFCF87
S113071430303036363637364130414154686520FE
S1130724446972747944617767204973204177611D
S10907346B65210A0D00B3
S9030000FC
