:100000000C9434000C94A1030C9451000C945100F6
:100010000C9451000C945A030C9451000C94510010
:100020000C9451000C9451000C9451000C9451000C
:100030000C9451000C9451000C94F6030C94BE03E4
:100040000C9451000C9451000C947E030C945100BC
:100050000C9451000C9451000C9451000C945100DC
:100060000C9451000C94510011241FBECFEFD4E02A
:10007000DEBFCDBF11E0A0E0B1E0E2EAFAE002C0ED
:1000800005900D92AE35B107D9F721E0AEE5B1E0AC
:1000900001C01D92A937B207E1F70E9404030C9436
:1000A0004F050C940000EAE6F1E01782789488E0AE
:1000B0008093690082E08DBB84E08093680080E1DA
:1000C00080936D008FE084B988EE8AB92FEF89E6BE
:1000D00098E1215080409040E1F700C0000087E0A7
:1000E00085B92FEF89E698E1215080409040E1F7F3
:1000F00000C0000015B881E08783089522E02093B6
:10010000C0009C0140E050E060E472E48FE090E0C9
:100110000E941C05215031093093C5002093C40072
:1001200088E18093C100E2ECF0E086E0808380818A
:100130008083EAE6F1E087818260878308950F93E8
:100140001F93CF93DF9360E080E80E9481048CE0EE
:1001500091E00E94BD04C7E6D1E00AE611E061E04B
:1001600089910E948104C017D107C9F780E191E00D
:100170000E94BD04CEE5D1E001E611E061E0899185
:100180000E948104C017D107C9F760E080EC0E948B
:10019000810486E191E00E94BD04C4E6D1E007E657
:1001A00011E061E089910E948104C017D107C9F76D
:1001B0008AE191E00E94BD04C1E6D1E004E611E0CD
:1001C00061E089910E948104C017D107C9F782E0DC
:1001D00080937201DF91CF911F910F9108958091CB
:1001E000C000882344F4A6ECB0E0E0ECF0E08C9191
:1001F00080818823E4F30895E0ECF0E08081882397
:10020000ECF78091C6000895E0ECF0E0908195FF56
:10021000FDCF8093C60008952FE38DE093E0215039
:1002200080409040E1F700C000008DE20E94040190
:100230008DE20E9404018DE20E9404018AE00E9486
:1002400004018DE00E9404012FE38DE093E0215032
:1002500080409040E1F700C0000060E081E00E9433
:1002600081048BE792E90197F1F700C000000E943A
:10027000EF0080E090E00895EF92FF920F931F93BC
:10028000CF93DF93CDB7DEB72C970FB6F894DEBFD0
:100290000FBECDBF2FE38DE093E021508040904012
:1002A000E1F700C000008DE20E9404018DE20E948F
:1002B00004018DE20E9404018AE00E9404018DE0A5
:1002C0000E940401EFE3FDE023E0E150F040204014
:1002D000E1F700C0000060E081EC0E94810461E071
:1002E0008AE20E94810460E08EEC0E94810461E059
:1002F0008AE20E9481040E94EF0084E20E940401CD
:1003000084E20E94040184E20E9404010E94FC0035
:100310008A30E1F70E94EF008CE0E0E0F1E0DE01DE
:10032000119601900D928A95E1F783E60E940401EF
:100330008CE20E9404018E010F5F1F4F7E018DE051
:10034000E80EF11CF80181918F010E9404010E1545
:100350001F05C1F78AE00E9404018DE00E9404019C
:100360000E94FC008A30E1F70E94FC00853229F4EB
:10037000EAE6F1E08781886087830E94FC008A308A
:10038000E1F760E081EC0E94810461E080E20E947C
:10039000810460E08EEC0E94810461E080E20E94B2
:1003A00081042C960FB6F894DEBF0FBECDBFDF914F
:1003B000CF911F910F91FF90EF900895CF93DF930E
:1003C0008DE20E94EB03809177018823E1F30E9484
:1003D0009803CAE6D1E08C830E9498030E94980398
:1003E0009C81913021F49E8198609E830DC0923053
:1003F00031F4EAE6F1E096819061968305C0EAE681
:10040000F1E09681977E9683CAE6D1E08D838E8156
:100410000E9404018D810E94040183E08887DF919E
:10042000CF910895EF92FF920F931F93CF93DF9395
:100430000E94FC008335E1F70E94FC00CAE6D1E08F
:100440008A830E94FC008B830E94FC0088830E94A8
:10045000FC00382F8983EA8129E2E29FF12D1124E3
:10046000F295FF700F2EF7E6EF2EF1E0FF2EF02D44
:10047000D701FC934CE95F2F4503C00111248E0F77
:10048000911D0AE010E0B8010E94E604D701119620
:100490006C931197F49FE00D1124660F862F880F3F
:1004A000880F680FE61B1296EC93EB81E29FF12D0B
:1004B0001124F295FF700F2EFEE5EF2EF1E0FF2ED6
:1004C000F02DD701FC935F2F4503C00111248E0F3F
:1004D000911DB8010E94E604D70111966C93119703
:1004E000F49FE00D1124660F862F880F880F680F88
:1004F000E61B1296EC93E881E29FF12D1124F29510
:10050000FF70C4E6D1E0F8835F2F4503C0011124DA
:100510008E0F911DB8010E94E6046983F49FE00DDF
:100520001124660F862F880F880F680FE61BEA8359
:10053000329F212D112422952F70E1E6F1E02083D6
:100540004203C0011124830F911DB8010E94E604EB
:100550006183249F300D1124660F862F880F880F2A
:10056000680F361B3283E7E6F1E0970161E671E040
:100570004AE651E08081805D8193D9018C91805D54
:100580008D939D018881805D8993DB018C91805DD5
:100590008D93BD01E417F50769F781E0809372013F
:1005A000DF91CF911F910F91FF90EF9008955F9A87
:1005B0000895299A089560E081E00E94810460E036
:1005C00085E80E94810480E291E00E94BD04C12C74
:1005D000D12C76010F2EF0E18F2EF7E29F2EA12C69
:1005E000B12CF02DC701B601A50194010E94FA04B7
:1005F000672B682B692B11F40E94D9028FEFC81A60
:10060000D80AE80AF80AEECFCAE6D1E081E0888786
:100610000E9453000E94CD040E949E0480E09BE44F
:100620000E947E000E9488030E940C0160E083E823
:100630000E94810486E291E00E94BD0460E083ECA8
:100640000E94810481E391E00E94BD048F8183FDBB
:1006500005C00E943C018F8183FFFBCF8DE30E9488
:10066000040160E080E80E9481048CE391E00E9434
:10067000BD0460E080EC0E9481048DE491E00E9462
:10068000BD04CAE6D1E08885823039F0833041F07C
:10069000813049F40E949F00F6CF0E94DE01F3CF23
:1006A0000E941202F0CF0E94D70283E590E00E94E0
:1006B000DB02E9CF1F920F920FB60F9211242F93F6
:1006C0008F939F93EF93FF938091710184FF09C0F3
:1006D000EAE6F1E0268191E092279683807E878387
:1006E00003C0806180937101FF91EF919F918F9181
:1006F0002F910F900FBE0F901F9018951F920F9281
:100700000FB60F9211240F900FBE0F901F901895E7
:1007100078945B9A81E085BD92E090936E0090930F
:1007200069008DBB1092760110927701539A08955B
:10073000809177018823E1F3109277018091750110
:1007400008951F920F920FB60F9211248F9386B5C2
:10075000805388BD1092780181E0809374014A999A
:1007600004C0E89886E080936E0084E085BBE09A40
:100770008F910F900FBE0F901F9018951F920F92A0
:100780000FB60F9211248F939F9399B180917401AA
:10079000882371F092FF05C090917801982B909377
:1007A0007801880F8093740188B5855788BD0CC087
:1007B00081E080937701909178019093750192E0A8
:1007C00090936E00E09A8DBB9F918F910F900FBE1A
:1007D0000F901F901895909176019111FCCF809504
:1007E000809373018AE08093760108951F920F929F
:1007F0000FB60F9211248F939F9387B5855787BDAE
:1008000080917601882399F0815080937601893018
:1008100049F080917301982F9095917086958093FF
:10082000730101C090E090FD5B9A90FF5B989F91EF
:100830008F910F900FBE0F901F901895CF93DF935D
:10084000C82FD62F84EA8093BC000E94E104892B34
:10085000E1F38091B900887F883021F088E090E052
:100860000E94DB02CC0FC093BB0084E88093BC00E5
:100870000E94E104892BE1F38091B900887F8831DF
:1008800031F08091B900887F90E00E94DB02D09324
:10089000BB0084E88093BC000E94E104892BE1F353
:1008A0008091B900887F883231F08091B900887FCB
:1008B00090E00E94DB0284E98093BC00DF91CF913D
:1008C0000895CF93C82F81EE94E00197F1F700C00F
:1008D00000006C2F646087E20E941E0481EE94E0A9
:1008E0000197F1F700C000006C2F6B7F87E20E9438
:1008F0001E0481EE94E00197F1F700C00000CF9153
:100900000895CF93DF93C62FC860D82FD07FDC2BFC
:1009100090E1899F90011124C22B6D2F87E20E94E4
:100920001E048D2F0E9461046C2F87E20E941E041A
:100930008C2F0E946104DF91CF91089560E083E3E2
:100940000E94810460E082E30E94810460E086E00E
:100950000E94810460E08CE00E94810460E088E2F3
:100960000E94810460E081E00E9481048FE097E2B0
:100970000197F1F700C000000895CF93DF93EC01D9
:100980008881882339F0219661E00E948104899151
:100990008111FACFDF91CF910895E4E6F0E08081F4
:1009A0008F778083E9EBF0E080818C7F808380E229
:1009B0008093B8008FEF8093BB0085E08093BC00EC
:1009C00008958091BC00807890E0089597FB072EF1
:1009D00016F4009407D077FD09D00E943B0507FC70
:1009E00005D03EF4909581959F4F0895709561953F
:1009F0007F4F0895A1E21A2EAA1BBB1BFD010DC05B
:100A0000AA1FBB1FEE1FFF1FA217B307E407F507BE
:100A100020F0A21BB30BE40BF50B661F771F881F9A
:100A2000991F1A9469F760957095809590959B0130
:100A3000AC01BD01CF010895052E97FB1EF4009473
:100A40000E94330557FD07D00E94FA0407FC03D02B
:100A50004EF40C94330550954095309521953F4FB9
:100A60004F4F5F4F089590958095709561957F4F9A
:100A70008F4F9F4F0895AA1BBB1B51E107C0AA1FB0
:100A8000BB1FA617B70710F0A61BB70B881F991F2F
:100A90005A95A9F780959095BC01CD010895F894D9
:020AA000FFCF86
:100AA200303030363636373641304141463A200012
:100AB2002020423A20004C3A20002020523A2000C6
:100AC2004572726F7200446972747944617767216A
:100AD20000436F6E6E656374696E6700463A20204C
:100AE20020202020423A202020202020004C3A20A2
:0E0AF2002020202020523A202020202020000A
:00000001FF
