S011000041544D6567613136382E7372656365
S11300000C9434000C942C040C9451000C94510066
S11300100C9451000C94C8030C9451000C9451009E
S11300200C9451000C9451000C9451000C94510008
S11300300C9451000C9451000C9476040C944904D3
S11300400C9451000C9451000C9409040C9451002C
S11300500C9451000C9451000C9451000C945100D8
S11300600C9451000C94510011241FBECFEFD4E026
S1130070DEBFCDBF11E0A0E0B1E0E2EAFBE002C0E8
S113008005900D92AE35B107D9F721E0AEE5B1E0A8
S113009001C01D92AA37B207E1F70E9470030C94C5
S11300A0CF050C940000EBE6F1E017821282138274
S11300B010821182789488E08093690082E08DBB7D
S11300C084E08093680080E380936D008FE084B9BE
S11300D088EE8AB92FEF83ED90E321508040904061
S11300E0E1F700C0000087E085B92FEF83ED90E3CE
S11300F0215080409040E1F700C0000015B881E035
S11301008783089522E02093C0009C0140E050E0E2
S113011060E472E48FE090E00E949C052150310974
S11301203093C5002093C40088E18093C100E2ECC1
S1130130F0E086E0808380818083EBE6F1E08781D4
S11301408260878308950F931F93CF93DF9360E0BA
S113015080E80E9401058CE091E00E943D05C8E61C
S1130160D1E00BE611E061E089910E940105C0171E
S1130170D107C9F780E191E00E943D05CFE5D1E0C8
S113018002E611E061E089910E940105C017D107E0
S1130190C9F760E080EC0E94010586E191E00E94CD
S11301A03D05C5E6D1E008E611E061E089910E94D1
S11301B00105C017D107C9F78AE191E00E943D0506
S11301C0C2E6D1E005E611E061E089910E940105F3
S11301D0C017D107C9F782E080937301DF91CF91F3
S11301E01F910F9108958091C000882344F4A6ECD8
S11301F0B0E0E0ECF0E08C9180818823E4F3089592
S1130200E0ECF0E080818823ECF78091C60008954B
S1130210E0ECF0E0908195FFFDCF8093C600089557
S11302202FEF89E698E1215080409040E1F700C02B
S113023000008DE20E9408018DE20E9408018DE217
S11302400E9408018AE00E9408018DE00E940801D2
S11302502FEF89E698E1215080409040E1F700C0FB
S1130260000060E081E00E9401052FE789EA93E045
S1130270215080409040E1F700C000000E94F3004C
S113028008958DE20E9408018DE20E9408018DE22A
S11302900E9408018AE00E9408018DE00E94080182
S11302A02FEF89E698E1215080409040E1F700C0AB
S11302B000000E94F30084E20E94080184E20E948C
S11302C0080184E20E9408010E9400018A30E1F7DB
S11302D087E40E9408018BE40E9408018AE00E94DE
S11302E008018DE00E9408010E940001813331F46D
S11302F0EBE6F1E087818860878305C0EBE6F1E0F7
S11303008781807F87830E94F3008DE20E94080129
S11303108DE20E9408018DE20E9408018AE00E9499
S113032008018DE00E9408012FEF89E698E1215031
S113033080409040E1F700C000000E94F30008955F
S1130340EF92FF920F931F93CF93DF93CDB7DEB756
S11303502C970FB6F894DEBF0FBECDBF2FEF89E602
S113036098E1215080409040E1F700C000008DE208
S11303700E9408018DE20E9408018DE20E9408019A
S11303808AE00E9408018DE00E940801EFEFF9E67F
S113039028E1E150F0402040E1F700C0000060E0B7
S11303A081EC0E94010561E08AE20E94010560E09F
S11303B08EEC0E94010561E08AE20E9401050E9420
S11303C0F30084E20E94080184E20E94080184E2AE
S11303D00E9408010E9400018A30E1F70E94F300A4
S11303E08CE0E0E0F1E0DE01119601900D928A9537
S11303F0E1F783E60E9408018CE20E9408018E0165
S11304000F5F1F4F7E018DE0E80EF11CF801819112
S11304108F010E9408010E151F05C1F78AE00E9492
S113042008018DE00E9408010E9400018A30E1F772
S11304300E940001853229F4EBE6F1E087818860AF
S113044087830E9400018A30E1F760E081EC0E941A
S1130450010561E080E20E94010560E08EEC0E94EB
S1130460010561E080E20E9401052C960FB6F89424
S1130470DEBF0FBECDBFDF91CF911F910F91FF90D3
S1130480EF9008955F9A0895299A089560E081E0B5
S11304900E94010560E085E80E94010580E291E088
S11304A00E943D05C12CD12C76010F2EF0E18F2E38
S11304B0F7E29F2EA12CB12CF02DC701B601A501A6
S11304C094010E947A05672B682B692B11F40E9412
S11304D044028FEFC81AD80AE80AF80AEECF5E9AE7
S11304E00895CF93DF930E946F020E942304833503
S11304F0E1F70E942304CBE6D1E08C830E9423041D
S11305000E9423049C81913021F49E8198609E83F3
S11305100DC0923031F4EBE6F1E096819061968360
S113052005C0EBE6F1E09681977E9683CBE6D1E0B9
S11305308D838E810E9408018D810E94080183E0D1
S11305408887DF91CF9108958BB11BB80895EF92FE
S1130550FF920F931F93CF93DF930E94A4020E94F4
S1130560F3000E9400018335E1F70E940001CBE60D
S1130570D1E08A830E9400018B830E94000188835A
S11305800E940001382F8983EA8129E2E29FF12D3C
S11305901124F295FF700F2EF8E6EF2EF1E0FF2EF6
S11305A0F02DD701FC934CE95F2F4503C0011124C2
S11305B08E0F911D0AE010E0B8010E946605D70174
S11305C011966C931197F49FE00D1124660F862FFA
S11305D0880F880F680FE61B1296EC93EB81E29F5D
S11305E0F12D1124F295FF700F2EFFE5EF2EF1E0AF
S11305F0FF2EF02DD701FC935F2F4503C00111247A
S11306008E0F911DB8010E946605D70111966C9357
S11306101197F49FE00D1124660F862F880F880F21
S1130620680FE61B1296EC93E881E29FF12D1124EA
S1130630F295FF70C5E6D1E0F8835F2F4503C00152
S113064011248E0F911DB8010E9466056983F49FE1
S1130650E00D1124660F862F880F880F680FE61BA4
S1130660EA83329F212D112422952F70E2E6F1E0D6
S113067020834203C0011124830F911DB8010E94FD
S113068066056183249F300D1124660F862F880F21
S1130690880F680F361B3283E8E6F1E0970162E6C3
S11306A071E04BE651E08081805D8193D9018C91AA
S11306B0805D8D939D018881805D8993DB018C91A0
S11306C0805D8D93BD01E417F50769F781E08093A0
S11306D07301DF91CF911F910F91FF90EF900895D7
S11306E0CBE6D1E081E088870E9453000E94130486
S11306F00E944D050E941E0580E09BE40E9482003A
S11307000E94100160E083E80E94010586E291E006
S11307100E943D0560E083EC0E94010581E391E0C5
S11307200E943D050E9441018F8183FD05C00E9406
S1130730A0018F8183FFFBCF8DE30E94080160E05D
S113074080E80E9401058CE391E00E943D0560E091
S113075080EC0E9401058DE491E00E943D05CBE60A
S1130760D1E08885823039F0833041F0813049F41A
S11307700E94A300F6CF0E947102F3CF0E94A70249
S1130780F0CF0E94420283E590E00E944602E9CF46
S11307901F920F920FB60F9211242F933F938F93B2
S11307A09F93EF93FF9389B190915E01892799B14B
S11307B090935E0184FF10C09091720194FF09C070
S11307C0EBE6F1E0368121E023272683907E9783B0
S11307D003C090619093720185FF10C080917201F3
S11307E085FF09C0EBE6F1E0268194E09227968329
S11307F0807C878303C0806280937201FF91EF91B4
S11308009F918F913F912F910F900FBE0F901F904A
S113081018951F920F920FB60F9211240F900FBECE
S11308200F901F90189578945B9A81E085BD92E0B3
S113083090936E00909369008DBB10927701109293
S11308407801539A0895809178018823E1F31092F6
S113085078018091760108951F920F920FB60F923E
S113086011248F9386B5805388BD1092790181E05D
S1130870809375014A9904C0E89886E080936E00DD
S113088084E085BBE09A8F910F900FBE0F901F906C
S113089018951F920F920FB60F9211248F939F9366
S11308A099B180917501882371F092FF05C09091F0
S11308B07901982B90937901880F8093750188B5FD
S11308C0855788BD0CC081E08093780190917901AF
S11308D09093760192E090936E00E09A8DBB9F9185
S11308E08F910F900FBE0F901F9018951F920F922B
S11308F00FB60F9211248F939F9387B5855787BDA9
S113090080917701882399F0815080937701893011
S113091049F080917401982F9095917086958093F9
S1130920740101C090E090FD5B9A90FF5B989F91E9
S11309308F910F900FBE0F901F901895CF93DF9358
S1130940C82FD62F84EA8093BC000E946105892BAE
S1130950E1F38091B900887F883021F088E090E04D
S11309600E944602CC0FC093BB0084E88093BC0075
S11309700E946105892BE1F38091B900887F883159
S113098031F08091B900887F90E00E944602D093B4
S1130990BB0084E88093BC000E946105892BE1F3CD
S11309A08091B900887F883231F08091B900887FC6
S11309B090E00E94460284E98093BC00DF91CF91CD
S11309C00895CF93C82F81EE94E00197F1F700C00A
S11309D000006C2F646087E20E949E0481EE94E024
S11309E00197F1F700C000006C2F6B7F87E20E9433
S11309F09E0481EE94E00197F1F700C00000CF91CE
S1130A000895CF93DF93C62FC860D82FD07FDC2BF7
S1130A1090E1899F90011124C22B6D2F87E20E94DF
S1130A209E048D2F0E94E1046C2F87E20E949E0495
S1130A308C2F0E94E104DF91CF91089560E083E35D
S1130A400E94010560E082E30E94010560E086E007
S1130A500E94010560E08CE00E94010560E088E2EC
S1130A600E94010560E081E00E9401058FE097E2A9
S1130A700197F1F700C000000895CF93DF93EC01D4
S1130A808881882339F0219661E00E9401058991CB
S1130A908111FACFDF91CF910895E4E6F0E08081EF
S1130AA08F778083E9EBF0E080818C7F808380E224
S1130AB08093B8008FEF8093BB0085E08093BC00E7
S1130AC008958091BC00807890E0089597FB072EEC
S1130AD016F4009407D077FD09D00E94BB0507FCEB
S1130AE005D03EF4909581959F4F0895709561953A
S1130AF07F4F0895A1E21A2EAA1BBB1BFD010DC056
S1130B00AA1FBB1FEE1FFF1FA217B307E407F507B9
S1130B1020F0A21BB30BE40BF50B661F771F881F95
S1130B20991F1A9469F760957095809590959B012B
S1130B30AC01BD01CF010895052E97FB1EF400946E
S1130B400E94B30557FD07D00E947A0507FC03D025
S1130B504EF40C94B30550954095309521953F4F34
S1130B604F4F5F4F089590958095709561957F4F95
S1130B708F4F9F4F0895AA1BBB1B51E107C0AA1FAB
S1130B80BB1FA617B70710F0A61BB70B881F991F2A
S1130B905A95A9F780959095BC01CD010895F894D4
S1050BA0FFCF81
S1130BA2303030363636373641304141463A20000D
S1130BB22020423A20004C3A20002020523A2000C1
S1130BC24572726F72004469727479446177672165
S1130BD200436F6E6E656374696E6700463A202047
S1130BE220202020423A202020202020004C3A209D
S1110BF22020202020523A2020202020200005
S9030000FC
