S011000041544D6567613136382E7372656365
S11300000C9434000C943A040C9451000C94510058
S11300100C9451000C94F3030C9451000C94510073
S11300200C9451000C9451000C9451000C94510008
S11300300C9451000C9451000C948F040C945704AC
S11300400C9451000C9451000C9417040C9451001E
S11300500C9451000C9451000C9451000C945100D8
S11300600C9451000C94510011241FBECFEFD4E026
S1130070DEBFCDBF11E0A0E0B1E0E4EDFBE002C0E3
S113008005900D92AE35B107D9F721E0AEE5B1E0A8
S113009001C01D92A937B207E1F70E948A030C94AC
S11300A0E8050C940000EAE6F1E01782128213825C
S11300B010821182789488E08093690082E08DBB7D
S11300C084E08093680080E180936D008FE084B9C0
S11300D088EE8AB92FEF89E698E12150804090405C
S11300E0E1F700C0000087E085B92FEF89E698E1C9
S11300F0215080409040E1F700C0000015B881E035
S11301008783089522E02093C0009C0140E050E0E2
S113011060E472E48FE090E00E94B505215031095B
S11301203093C5002093C40088E18093C100E2ECC1
S1130130F0E086E0808380818083EAE6F1E08781D5
S11301408260878308950F931F93CF93DF9360E0BA
S113015080E80E941A058CE091E00E945605C7E6EB
S1130160D1E00AE611E061E089910E941A05C01706
S1130170D107C9F780E191E00E945605CEE5D1E0B0
S113018001E611E061E089910E941A05C017D107C8
S1130190C9F760E080EC0E941A0586E191E00E94B4
S11301A05605C4E6D1E007E611E061E089910E94BA
S11301B01A05C017D107C9F78AE191E00E945605D4
S11301C0C1E6D1E004E611E061E089910E941A05DC
S11301D0C017D107C9F782E080937201DF91CF91F4
S11301E01F910F9108958091C000882344F4A6ECD8
S11301F0B0E0E0ECF0E08C9180818823E4F3089592
S1130200E0ECF0E080818823ECF78091C60008954B
S1130210E0ECF0E0908195FFFDCF8093C600089557
S11302202FE38DE093E0215080409040E1F700C03F
S113023000008DE20E9408018DE20E9408018DE217
S11302400E9408018AE00E9408018DE00E940801D2
S11302502FE38DE093E0215080409040E1F700C00F
S1130260000060E081E00E941A058BE792E90197A3
S1130270F1F700C000000E94F30008958DE20E948F
S113028008018DE20E9408018DE20E9408018AE0C3
S11302900E9408018DE00E9408012FE38DE093E0A5
S11302A0215080409040E1F700C000000E94F3001C
S11302B084E20E94080184E20E94080184E20E9410
S11302C008010E9400018A30E1F787E40E940801D6
S11302D08BE40E9408018AE00E9408018DE00E94DC
S11302E008010E940001813331F4EAE6F1E08781DC
S11302F08860878305C0EAE6F1E08781807F878391
S11303000E94F3008DE20E9408018DE20E94080120
S11303108DE20E9408018AE00E9408018DE00E949B
S113032008012FE38DE093E0215080409040E1F7F5
S113033000C000000E94F3000895EF92FF920F9313
S11303401F93CF93DF93CDB7DEB72C970FB6F894F6
S1130350DEBF0FBECDBF2FE38DE093E02150804080
S11303609040E1F700C000008DE20E9408018DE298
S11303700E9408018DE20E9408018AE00E9408019F
S11303808DE00E940801EFE3FDE023E0E150F0403E
S11303902040E1F700C0000060E081EC0E941A05F3
S11303A061E08AE20E941A0560E08EEC0E941A0560
S11303B061E08AE20E941A050E94F30084E20E942E
S11303C0080184E20E94080184E20E9408010E945C
S11303D000018A30E1F70E94F3008CE0E0E0F1E0F4
S11303E0DE01119601900D928A95E1F783E60E9451
S11303F008018CE20E9408018E010F5F1F4F7E01ED
S11304008DE0E80EF11CF80181918F010E94080132
S11304100E151F05C1F78AE00E9408018DE00E94B5
S113042008010E9400018A30E1F70E940001853230
S113043029F4EAE6F1E08781886087830E9400015D
S11304408A30E1F760E081EC0E941A0561E080E205
S11304500E941A0560E08EEC0E941A0561E080E2B9
S11304600E941A052C960FB6F894DEBF0FBECDBFBE
S1130470DF91CF911F910F91FF90EF9008955F9AB4
S113048008958BB11BB80895299A089560E081E01E
S11304900E941A0560E085E80E941A0580E291E056
S11304A00E945605C12CD12C76010F2EF0E18F2E1F
S11304B0F7E29F2EA12CB12CF02DC701B601A501A6
S11304C094010E949305672B682B692B11F40E94F9
S11304D044028FEFC81AD80AE80AF80AEECF5E9AE7
S11304E008950E946F028DE20E9484040E943104E8
S11304F00E9408010E9431040E9408010E943104F4
S11305000E94080183E08093720108958BB11BB8A7
S11305100895CF92DF92EF92FF920F931F93CF93A0
S1130520DF930E948602CFE1DEE410E00F2EF0ECB0
S1130530EF2EF12CF02D0F2EF6ECCF2ED12CF02D2A
S1130540D7018C91882314F4F6011081C131F7E2AC
S1130550DF0718F00E943F0202C00E9441021335D7
S113056089F1219769F714C02081205D2193DC0172
S11305702C91205D2D93CD012881205D2993DB01F1
S11305802C91205D2D93BD01E417F50769F716C082
S1130590E7E6F1E02EE531E0C4E6D1E061E671E0A2
S11305A04AE651E08DE28193D9018D939D018993AF
S11305B0DB018D93BD01E417F507A9F781E0809372
S11305C072019FC00E940001CAE6D1E08A830E94A2
S11305D000018B830E94000188830E940001382F50
S11305E08983EA8129E2E29FF12D1124F295FF70BB
S11305F00F2EF7E6EF2EF1E0FF2EF02DD701FC933E
S11306004CE95F2F4503C00111248E0F911D0AE0B0
S113061010E0B8010E947F05D70111966C931197E1
S1130620F49FE00D1124660F862F880F880F680F42
S1130630E61B1296EC93EB81E29FF12D1124F295C7
S1130640FF700F2EFEE5EF2EF1E0FF2EF02DD70107
S1130650FC935F2F4503C00111248E0F911DB80137
S11306600E947F05D70111966C931197F49FE00DBA
S11306701124660F862F880F880F680FE61B1296C9
S1130680EC93E881E29FF12D1124F295FF70C4E60A
S1130690D1E0F8835F2F4503C00111248E0F911D13
S11306A0B8010E947F056983F49FE00D1124660F51
S11306B0862F880F880F680FE61BEA83329F212D4F
S11306C0112422952F70E1E6F1E020834203C0015A
S11306D01124830F911DB8010E947F056183249F1B
S11306E0300D1124660F862F880F880F680F361B74
S11306F03283E7E6F1E0C70161E671E04AE651E0E2
S113070033CFDF91CF911F910F91FF90EF90DF9046
S1130710CF900895CAE6D1E081E088870E94530013
S11307200E9421040E9466050E94370580E09BE434
S11307300E9482000E94100160E083E80E941A0572
S113074086E291E00E94560560E083EC0E941A055F
S113075081E391E00E9456050E943E018F8183FD52
S113076005C00E949D018F8183FFFBCF8DE30E9412
S1130770080160E080E80E941A058CE391E00E9481
S1130780560560E080EC0E941A058DE491E00E9419
S1130790560510E0CAE6D1E003E0F12C88858230EA
S11307A039F0833069F0813071F40E94A30011C0E4
S11307B01F5F143018F00E9471021F2D088709C0B2
S11307C00E94890206C00E943F0283E590E00E94D5
S11307D046022FE78AE196E0215080409040E1F7FD
S11307E000C00000DBCF1F920F920FB60F921124AE
S11307F02F938F939F93EF93FF938091710184FFC5
S113080009C0EAE6F1E0268191E092279683807E92
S1130810878303C0806180937101FF91EF919F9161
S11308208F912F910F900FBE0F901F9018951F92CC
S11308300F920FB60F9211240F900FBE0F901F90BE
S1130840189578945B9A81E085BD92E090936E0050
S1130850909369008DBB1092760110927701539AA0
S11308600895809177018823E1F3109277018091B4
S1130870750108951F920F920FB60F9211248F9352
S113088086B58F5888BD1092780181E080937401F9
S11308904A9904C0E89886E080936E0084E085BBA2
S11308A0E09A8F910F900FBE0F901F9018951F9292
S11308B00F920FB60F9211248F939F9399B1809149
S11308C07401882371F092FF05C090917801982BF0
S11308D090937801880F8093740188B58F5588BDF3
S11308E00CC081E080937701909178019093750119
S11308F092E090936E00E09A8DBB9F918F910F9040
S11309000FBE0F901F901895909176019111FCCF16
S11309108095809373018AE08093760108951F92F5
S11309200F920FB60F9211248F939F9387B58F5513
S113093087BD80917601882399F081508093760158
S1130940893049F080917301982F90959170869524
S11309508093730101C090E090FD5B9A90FF5B98D7
S11309609F918F910F900FBE0F901F901895CF936A
S1130970DF93C82FD62F84EA8093BC000E947A05A7
S1130980892BE1F38091B900887F883021F088E0D9
S113099090E00E944602CC0FC093BB0084E8809391
S11309A0BC000E947A05892BE1F38091B900887F0D
S11309B0883131F08091B900887F90E00E9446022E
S11309C0D093BB0084E88093BC000E947A05892BF5
S11309D0E1F38091B900887F883231F08091B900C9
S11309E0887F90E00E94460284E98093BC00DF91F6
S11309F0CF910895CF93C82F81EE94E00197F1F73A
S1130A0000C000006C2F646087E20E94B70481EE8E
S1130A1094E00197F1F700C000006C2F6B7F87E230
S1130A200E94B70481EE94E00197F1F700C0000042
S1130A30CF910895CF93DF93C62FC860D82FD07F6E
S1130A40DC2B90E1899F90011124C22B6D2F87E24A
S1130A500E94B7048D2F0E94FA046C2F87E20E9433
S1130A60B7048C2F0E94FA04DF91CF91089560E0BF
S1130A7083E30E941A0560E082E30E941A0560E0A5
S1130A8086E00E941A0560E08CE00E941A0560E08E
S1130A9088E20E941A0560E081E00E941A058FE056
S1130AA097E20197F1F700C000000895CF93DF9318
S1130AB0EC018881882339F0219661E00E941A05AF
S1130AC089918111FACFDF91CF910895E4E6F0E0A6
S1130AD080818F778083E9EBF0E080818C7F808355
S1130AE080E28093B8008FEF8093BB0085E0809311
S1130AF0BC0008958091BC00807890E0089597FB35
S1130B00072E16F4009407D077FD09D00E94D4056F
S1130B1007FC05D03EF4909581959F4F08957095FC
S1130B2061957F4F0895A1E21A2EAA1BBB1BFD01FC
S1130B300DC0AA1FBB1FEE1FFF1FA217B307E407B8
S1130B40F50720F0A21BB30BE40BF50B661F771F10
S1130B50881F991F1A9469F76095709580959095F0
S1130B609B01AC01BD01CF010895052E97FB1EF436
S1130B7000940E94CC0557FD07D00E94930507FC02
S1130B8003D04EF40C94CC055095409530952195A6
S1130B903F4F4F4F5F4F08959095809570956195A5
S1130BA07F4F8F4F9F4F0895AA1BBB1B51E107C076
S1130BB0AA1FBB1FA617B70710F0A61BB70B881FE9
S1130BC0991F5A95A9F780959095BC01CD01089578
S1070BD0F894FFCFC3
S1130BD4303030363636373641304141463A2000DB
S1130BE42020423A20004C3A20002020523A20008F
S1130BF44572726F72004469727479446177672133
S1130C0400436F6E6E656374696E6700463A202014
S1130C1420202020423A202020202020004C3A206A
S1110C242020202020523A20202020202000D2
S9030000FC
