S011000041544D6567613136382E7372656365
S11300000C9434000C940F030C9451000C94510084
S11300100C9451000C94AE020C9451000C945100B9
S11300200C9451000C9451000C9451000C94510008
S11300300C9451000C9451000C9459030C942C030F
S11300400C9451000C9451000C94B8020C9451007F
S11300500C9451000C9451000C9451000C945100D8
S11300600C9451000C94510011241FBECFEFD4E026
S1130070DEBFCDBF11E0A0E0B1E0EEE3FAE002C0E4
S113008005900D92AE32B107D9F721E0AEE2B1E0AE
S113009001C01D92A035B207E1F70E946C020C94D6
S11300A01D050C94000010924901109248017894A7
S11300B088E08093690082E08DBB84E080936800CF
S11300C080E180936D008FE084B988EE8AB92FEFC8
S11300D089E698E1215080409040E1F700C000009B
S11300E087E085B92FEF89E698E121508040904060
S11300F0E1F700C0000015B881E090E09093490159
S113010080934801089522E02093C0009C0140E0C0
S113011050E060E472E48FE090E00E94AA04215071
S113012031093093C5002093C40088E18093C10055
S1130130E2ECF0E086E08083808180838091480156
S113014090914901826090934901809348010895F8
S1130150E0ECF0E080818823ECF78091C6000895FC
S1130160E0ECF0E0908195FFFDCF8093C600089508
S11301708091C000882344F4A6ECB0E0E0ECF0E009
S11301808C9180818823E4F308952FEF89E698E128
S1130190215080409040E1F700C000008DE20E94B1
S11301A0B0008DE20E94B0008DE20E94B0008AE0AF
S11301B00E94B0008DE00E94B0002FE38DE093E038
S11301C0215080409040E1F700C0000060E081E0F1
S11301D00E94E4038BE792E90197F1F700C0000065
S11301E00E94B80080E090E00895EF92FF920F9390
S11301F01F93CF93DF93CDB7DEB72C970FB6F89448
S1130200DEBF0FBECDBF2FEF89E698E121508040BD
S11302109040E1F700C000008DE20E94B0008DE242
S11302200E94B0008DE20E94B0008AE00E94B000FB
S11302308DE00E94B000EFE3FDE023E0E150F040E8
S11302402040E1F700C0000060E081E00E94E40388
S11302508BE792E90197F1F700C000000E94B80013
S113026084E20E94B00084E20E94B00084E20E9412
S1130270B0000E94A80061E00E94E4030E94A8006C
S113028061E00E94E4030E94A80061E00E94E4038C
S11302900E94B8008CE0E0E0F1E0DE0111960190EC
S11302A00D928A95E1F783E60E94B0008CE20E94E9
S11302B0B0008E010F5F1F4F7E019DE0E90EF11C1F
S11302C0F80181918F010E94B0000E151F05C1F73E
S11302D08AE00E94B0008DE00E94B0000E94A80055
S11302E08A30E1F7FFE32DE083E0F15020408040C5
S11302F0E1F700C000002C960FB6F894DEBF0FBEE5
S1130300CDBFDF91CF911F910F91FF90EF90089592
S1130310D82FC12CD12C76010F2EF0E18F2EF7E2CD
S11303209F2EA12CB12CF02DC2E0C701B601A5016E
S113033094010E948804672B682B692B21F4C3B9AC
S11303408D2F0E94B0008FEFC81AD80AE80AF80A65
S1130350ECCF0F931F93CF93DF9380912E018111E4
S11303600DC021E130E04CE051E061E170E08DE14D
S113037091E00E94200481E080932E01CBE3D1E040
S11303804AE050E068E371E08C819D810E94DD04C5
S11303904AE050E06FE271E08E819F810E94DD04AB
S11303A028813981C90164E670E00E947404462FF3
S11303B0E5E3F1E0C90154E6659F80199109112430
S11303C06AE070E00E94740484E6489F20191124B6
S11303D0962F990F892F880F880F890F281B405D4E
S11303E04083605D6183205D22834AE050E062E3E4
S11303F071E08A819B810E94DD0460E083E80E94B1
S1130400E403C8E3D1E00BE311E061E089910E94C9
S1130410E403C017D107C9F760E08BE80E94E40346
S1130420CFE2D1E002E311E061E089910E94E403AC
S1130430C017D107C9F760E083EC0E94E403C5E369
S1130440D1E008E311E061E089910E94E403C01760
S1130450D107C9F760E08BEC0E94E403C2E3D1E06A
S113046005E311E061E089910E94E403C017D1071C
S1130470C9F783E294EF0197F1F700C0000083E02D
S113048080934701DF91CF911F910F910895CF93EE
S1130490DF93CBE3D1E088850E94B00089850E9478
S11304A0B000DF91CF91089588E50E94B0008AE4FE
S11304B00E94B0008FE40E94B00082E40E94B00069
S11304C085E40E94B00089E50E94B00081E0809339
S11304D0470108955F9A089581E0809347010E943F
S11304E053000E945B040E94010480E09BE40E948C
S11304F083000E94FF020E94C5000E94F500E8E309
S1130500F1E02FE231E0C5E3D1E062E371E04BE3D7
S113051051E080E38193D9018D939D018993DB019F
S11305208D93BD01E417F507A9F7CBE3D1E08C85E2
S1130530823039F0833041F0813049F40E94A901BE
S1130540F6CF0E944702F3CF0E945402F0CF0E94DC
S11305506A0283E590E00E948801E9CF1F920F921E
S11305600FB60F9211240F900FBE0F901F90189585
S11305701F920F920FB60F9211242F933F934F9314
S11305805F936F937F938F939F93AF93BF93CF9317
S1130590DF93EF93FF930E94A800853229F40E9411
S11305A0A8008A30E1F718C08335B1F40E94A8008E
S11305B0CBE3D1E090E09D838C830E94A80090E07F
S11305C09F838E830E94A80090E0998388830E9471
S11305D0A80090E09B838A83FF91EF91DF91CF91F4
S11305E0BF91AF919F918F917F916F915F914F9147
S11305F03F912F910F900FBE0F901F9018957894F4
S11306005B9A81E085BD92E090936E0090936900BF
S11306108DBB10924D0110924E01539A08951F9272
S11306200F920FB60F9211248F9386B5805388BD15
S113063010924F0181E080934B014A9904C0E898DD
S113064086E080936E0084E085BBE09A8F910F90E2
S11306500FBE0F901F9018951F920F920FB60F9216
S113066011248F939F9399B180914B01882371F04A
S113067092FF05C090914F01982B90934F01880FE2
S113068080934B0188B5855788BD0CC081E0809369
S11306904E0190914F0190934C0192E090936E0023
S11306A0E09A8DBB9F918F910F900FBE0F901F907A
S11306B018951F920F920FB60F9211248F939F9348
S11306C087B5855787BD80914D01882399F0815066
S11306D080934D01893049F080914A01982F90957B
S11306E09170869580934A0101C090E090FD5B9AD9
S11306F090FF5B989F918F910F900FBE0F901F906A
S11307001895CF93DF93C82FD62F84EA8093BC002B
S11307100E946F04892BE1F38091B900887F8830AF
S113072021F088E090E00E948801CC0FC093BB00C8
S113073084E88093BC000E946F04892BE1F38091CC
S1130740B900887F883131F08091B900887F90E0CA
S11307500E948801D093BB0084E88093BC000E946F
S11307606F04892BE1F38091B900887F883231F0DE
S11307708091B900887F90E00E94880184E9809389
S1130780BC00DF91CF910895CF93C82F81EE94E000
S11307900197F1F700C000006C2F646087E20E94AB
S11307A0810381EE94E00197F1F700C000006C2F03
S11307B06B7F87E20E94810381EE94E00197F1F759
S11307C000C00000CF910895CF93DF93C62FC86077
S11307D0D82FD07FDC2B90E1899F90011124C22B6C
S11307E06D2F87E20E9481038D2F0E94C4036C2F1A
S11307F087E20E9481038C2F0E94C403DF91CF9172
S1130800089560E083E30E94E40360E082E30E94D1
S1130810E40360E086E00E94E40360E08CE00E9470
S1130820E40360E088E20E94E40360E081E00E9467
S1130830E4038FE097E20197F1F700C00000089508
S1130840AF92BF92CF92DF92EF92FF920F931F93DA
S1130850CF93DF935C017B016A01890160E080E84A
S11308600E94E4031E141F0454F4E501EA0CFB1C6B
S113087061E089910E94E403CE15DF05C9F760E0C9
S113088080EC0E94E4031016110654F4E6010C0DEA
S11308901D1D61E089910E94E403C017D107C9F7C7
S11308A0DF91CF911F910F91FF90EF90DF90CF9048
S11308B0BF90AF900895E4E6F0E080818F77808365
S11308C0E9EBF0E080818C7F808380E28093B80044
S11308D08FEF8093BB0085E08093BC0008958091E6
S11308E0BC00807890E0089597FB072E16F40094DE
S11308F007D077FD09D00E94C90407FC05D03EF457
S1130900909581959F4F0895709561957F4F0895B7
S1130910A1E21A2EAA1BBB1BFD010DC0AA1FBB1FFF
S1130920EE1FFF1FA217B307E407F50720F0A21B71
S1130930B30BE40BF50B661F771F881F991F1A94DE
S113094069F760957095809590959B01AC01BD0108
S1130950CF010895052E97FB1EF400940E94C10454
S113096057FD07D00E94880407FC03D04EF40C9472
S1130970C10450954095309521953F4F4F4F5F4F9F
S1130980089590958095709561957F4F8F4F9F4FF7
S11309900895AA1BBB1B51E107C0AA1FBB1FA617C2
S11309A0B70710F0A61BB70B881F991F5A95A9F714
S11309B080959095BC01CD0108954532510520F4F0
S11309C0423010F00C94E804FB011082CB0108952E
S11309D0BB274A3031F4992322F4BDE290958195E6
S11309E09F4F0C94F404BB27FB015527AA27880FBB
S11309F0991FAA1FA41710F0A41B83955051B9F78F
S1130A00A05DAA3308F0A95DA193009779F7B1110D
S1130A10B1931192CB010C940D05DC01FC01672FFD
S1130A2071917723E1F7329704C07C916D937083C1
S1110A306291AE17BF07C8F30895F894FFCF84
S1130A3E3030303636363736413041414C3A20204C
S1130A4E20202020523A20202020202000463A2028
S1110A5E2020202020423A20202020202000AA
S9030000FC
